{
	"_format": "hh-sol-artifact-1",
	"contractName": "L2ScanEthereumBridge",
	"sourceName": "contracts/L2ScanEthereumBridge.sol",
	"abi": [
		{
			"inputs": [
				{
					"internalType": "address",
					"name": "target",
					"type": "address"
				}
			],
			"name": "AddressEmptyCode",
			"type": "error"
		},
		{
			"inputs": [
				{
					"internalType": "address",
					"name": "account",
					"type": "address"
				}
			],
			"name": "AddressInsufficientBalance",
			"type": "error"
		},
		{
			"inputs": [],
			"name": "FailedInnerCall",
			"type": "error"
		},
		{
			"inputs": [
				{
					"internalType": "address",
					"name": "owner",
					"type": "address"
				}
			],
			"name": "OwnableInvalidOwner",
			"type": "error"
		},
		{
			"inputs": [
				{
					"internalType": "address",
					"name": "account",
					"type": "address"
				}
			],
			"name": "OwnableUnauthorizedAccount",
			"type": "error"
		},
		{
			"inputs": [
				{
					"internalType": "address",
					"name": "token",
					"type": "address"
				}
			],
			"name": "SafeERC20FailedOperation",
			"type": "error"
		},
		{
			"anonymous": false,
			"inputs": [
				{
					"indexed": true,
					"internalType": "address",
					"name": "previousOwner",
					"type": "address"
				},
				{
					"indexed": true,
					"internalType": "address",
					"name": "newOwner",
					"type": "address"
				}
			],
			"name": "OwnershipTransferred",
			"type": "event"
		},
		{
			"anonymous": false,
			"inputs": [
				{
					"indexed": false,
					"internalType": "address",
					"name": "from",
					"type": "address"
				},
				{
					"indexed": false,
					"internalType": "address",
					"name": "to",
					"type": "address"
				},
				{
					"indexed": false,
					"internalType": "address",
					"name": "token",
					"type": "address"
				},
				{
					"indexed": false,
					"internalType": "uint256",
					"name": "amount",
					"type": "uint256"
				}
			],
			"name": "ScrollDepositERC20Event",
			"type": "event"
		},
		{
			"anonymous": false,
			"inputs": [
				{
					"indexed": false,
					"internalType": "address",
					"name": "from",
					"type": "address"
				},
				{
					"indexed": false,
					"internalType": "address",
					"name": "to",
					"type": "address"
				},
				{
					"indexed": false,
					"internalType": "uint256",
					"name": "amount",
					"type": "uint256"
				}
			],
			"name": "ScrollDepositETHEvent",
			"type": "event"
		},
		{
			"anonymous": false,
			"inputs": [
				{
					"indexed": false,
					"internalType": "uint256",
					"name": "feeRate",
					"type": "uint256"
				}
			],
			"name": "UpdateFeeRate",
			"type": "event"
		},
		{
			"anonymous": false,
			"inputs": [
				{
					"indexed": false,
					"internalType": "address",
					"name": "from",
					"type": "address"
				},
				{
					"indexed": false,
					"internalType": "address",
					"name": "to",
					"type": "address"
				},
				{
					"indexed": false,
					"internalType": "address",
					"name": "token",
					"type": "address"
				},
				{
					"indexed": false,
					"internalType": "uint256",
					"name": "amount",
					"type": "uint256"
				}
			],
			"name": "ZkSyncEraDepositERC20Event",
			"type": "event"
		},
		{
			"anonymous": false,
			"inputs": [
				{
					"indexed": false,
					"internalType": "address",
					"name": "from",
					"type": "address"
				},
				{
					"indexed": false,
					"internalType": "address",
					"name": "to",
					"type": "address"
				},
				{
					"indexed": false,
					"internalType": "uint256",
					"name": "amount",
					"type": "uint256"
				}
			],
			"name": "ZkSyncEraDepositETHEvent",
			"type": "event"
		},
		{
			"inputs": [
				{
					"internalType": "uint256",
					"name": "amount",
					"type": "uint256"
				}
			],
			"name": "amountAfterFee",
			"outputs": [
				{
					"internalType": "uint256",
					"name": "",
					"type": "uint256"
				}
			],
			"stateMutability": "view",
			"type": "function"
		},
		{
			"inputs": [
				{
					"internalType": "address",
					"name": "_token",
					"type": "address"
				},
				{
					"internalType": "address",
					"name": "_to",
					"type": "address"
				},
				{
					"internalType": "uint256",
					"name": "_amount",
					"type": "uint256"
				},
				{
					"internalType": "uint256",
					"name": "_gasLimit",
					"type": "uint256"
				}
			],
			"name": "depositERC20ToScroll",
			"outputs": [],
			"stateMutability": "payable",
			"type": "function"
		},
		{
			"inputs": [
				{
					"internalType": "address",
					"name": "_l2Receiver",
					"type": "address"
				},
				{
					"internalType": "address",
					"name": "_l1Token",
					"type": "address"
				},
				{
					"internalType": "uint256",
					"name": "_amount",
					"type": "uint256"
				},
				{
					"internalType": "uint256",
					"name": "_l2TxGasLimit",
					"type": "uint256"
				},
				{
					"internalType": "uint256",
					"name": "_l2TxGasPerPubdataByte",
					"type": "uint256"
				},
				{
					"internalType": "address",
					"name": "_refundRecipient",
					"type": "address"
				}
			],
			"name": "depositERC20ToZkSyncEra",
			"outputs": [
				{
					"internalType": "bytes32",
					"name": "l2TxHash",
					"type": "bytes32"
				}
			],
			"stateMutability": "payable",
			"type": "function"
		},
		{
			"inputs": [
				{
					"internalType": "address",
					"name": "to",
					"type": "address"
				},
				{
					"internalType": "uint256",
					"name": "_amount",
					"type": "uint256"
				},
				{
					"internalType": "uint256",
					"name": "_gasLimit",
					"type": "uint256"
				}
			],
			"name": "depositETHToScroll",
			"outputs": [],
			"stateMutability": "payable",
			"type": "function"
		},
		{
			"inputs": [
				{
					"internalType": "address",
					"name": "_contractL2",
					"type": "address"
				},
				{
					"internalType": "uint256",
					"name": "_l2Value",
					"type": "uint256"
				},
				{
					"internalType": "bytes",
					"name": "_calldata",
					"type": "bytes"
				},
				{
					"internalType": "uint256",
					"name": "_l2GasLimit",
					"type": "uint256"
				},
				{
					"internalType": "uint256",
					"name": "_l2GasPerPubdataByteLimit",
					"type": "uint256"
				},
				{
					"internalType": "bytes[]",
					"name": "_factoryDeps",
					"type": "bytes[]"
				},
				{
					"internalType": "address",
					"name": "_refundRecipient",
					"type": "address"
				}
			],
			"name": "depositETHToZkSyncEra",
			"outputs": [
				{
					"internalType": "bytes32",
					"name": "canonicalTxHash",
					"type": "bytes32"
				}
			],
			"stateMutability": "payable",
			"type": "function"
		},
		{
			"inputs": [],
			"name": "feeRate",
			"outputs": [
				{
					"internalType": "uint256",
					"name": "",
					"type": "uint256"
				}
			],
			"stateMutability": "view",
			"type": "function"
		},
		{
			"inputs": [
				{
					"internalType": "address",
					"name": "initialOwner",
					"type": "address"
				}
			],
			"name": "initialize",
			"outputs": [],
			"stateMutability": "nonpayable",
			"type": "function"
		},
		{
			"inputs": [
				{
					"internalType": "address",
					"name": "initialOwner",
					"type": "address"
				},
				{
					"internalType": "uint256",
					"name": "_feeRate",
					"type": "uint256"
				}
			],
			"name": "initializeFeeCollector",
			"outputs": [],
			"stateMutability": "nonpayable",
			"type": "function"
		},
		{
			"inputs": [],
			"name": "owner",
			"outputs": [
				{
					"internalType": "address",
					"name": "",
					"type": "address"
				}
			],
			"stateMutability": "view",
			"type": "function"
		},
		{
			"inputs": [
				{
					"internalType": "uint256",
					"name": "_feeRate",
					"type": "uint256"
				}
			],
			"name": "setFeeRate",
			"outputs": [],
			"stateMutability": "nonpayable",
			"type": "function"
		},
		{
			"inputs": [
				{
					"internalType": "address",
					"name": "newOwner",
					"type": "address"
				}
			],
			"name": "transferOwnership",
			"outputs": [],
			"stateMutability": "nonpayable",
			"type": "function"
		},
		{
			"inputs": [
				{
					"internalType": "address payable",
					"name": "recipient",
					"type": "address"
				},
				{
					"internalType": "address",
					"name": "asset",
					"type": "address"
				},
				{
					"internalType": "uint256",
					"name": "amount",
					"type": "uint256"
				}
			],
			"name": "withdrawFee",
			"outputs": [],
			"stateMutability": "nonpayable",
			"type": "function"
		},
		{
			"inputs": [
				{
					"internalType": "address payable",
					"name": "recipient",
					"type": "address"
				},
				{
					"internalType": "address[]",
					"name": "assets",
					"type": "address[]"
				}
			],
			"name": "withdrawFees",
			"outputs": [],
			"stateMutability": "nonpayable",
			"type": "function"
		}
	],
	"bytecode": "0x608060405234801561001057600080fd5b506123c5806100206000396000f3fe6080604052600436106100c25760003560e01c80638da5cb5b1161007f578063aa6cd24b11610059578063aa6cd24b1461023d578063ad54cde61461027a578063c4d66de814610296578063f2fde38b146102bf576100c2565b80638da5cb5b146101be578063978bbdb9146101e95780639b04ce2914610214576100c2565b80631095b6d7146100c757806324643380146100f05780634280930b1461011957806345596e2e14610149578063537fb27e1461017257806369f6ab3c1461018e575b600080fd5b3480156100d357600080fd5b506100ee60048036038101906100e9919061155f565b6102e8565b005b3480156100fc57600080fd5b50610117600480360381019061011291906115b2565b610414565b005b610133600480360381019061012e91906116ad565b6104b9565b60405161014091906117a8565b60405180910390f35b34801561015557600080fd5b50610170600480360381019061016b91906117c3565b610658565b005b61018c600480360381019061018791906117f0565b6106e6565b005b6101a860048036038101906101a39190611857565b6107e2565b6040516101b591906117a8565b60405180910390f35b3480156101ca57600080fd5b506101d3610939565b6040516101e091906118f3565b60405180910390f35b3480156101f557600080fd5b506101fe610962565b60405161020b919061191d565b60405180910390f35b34801561022057600080fd5b5061023b6004803603810190610236919061198e565b610968565b005b34801561024957600080fd5b50610264600480360381019061025f91906117c3565b6109c2565b604051610271919061191d565b60405180910390f35b610294600480360381019061028f91906119ee565b6109e6565b005b3480156102a257600080fd5b506102bd60048036038101906102b89190611a41565b610b1e565b005b3480156102cb57600080fd5b506102e660048036038101906102e19190611a41565b610c2b565b005b6102f0610cb1565b600073ffffffffffffffffffffffffffffffffffffffff168273ffffffffffffffffffffffffffffffffffffffff160361035e5760008103610330574790505b610359818473ffffffffffffffffffffffffffffffffffffffff16610d3890919063ffffffff16565b61040f565b600081036103e3578173ffffffffffffffffffffffffffffffffffffffff166370a08231306040518263ffffffff1660e01b815260040161039f91906118f3565b602060405180830381865afa1580156103bc573d6000803e3d6000fd5b505050506040513d601f19601f820116820180604052508101906103e09190611a83565b90505b61040e83828473ffffffffffffffffffffffffffffffffffffffff16610e259092919063ffffffff16565b5b505050565b600073ffffffffffffffffffffffffffffffffffffffff16610434610939565b73ffffffffffffffffffffffffffffffffffffffff16036104595761045882610b1e565b5b610469610464610ea4565b610eac565b6127108111156104ae576040517f08c379a00000000000000000000000000000000000000000000000000000000081526004016104a590611b33565b60405180910390fd5b806001819055505050565b6000806104c58a6109c2565b905060008a82346104d69190611b82565b6104e09190611bb6565b905080341015610525576040517f08c379a000000000000000000000000000000000000000000000000000000000815260040161051c90611c36565b60405180910390fd5b600073ffffffffffffffffffffffffffffffffffffffff168473ffffffffffffffffffffffffffffffffffffffff160361056457610561610ea4565b93505b7f4b0060115e50fde0f9ce4f4544d2db632e3da35db168ff0a2ea7d30dee67213461058d610ea4565b8d8d60405161059e93929190611c56565b60405180910390a1739a6de0f62aa270a8bcb1e2610078650d539b1ef973ffffffffffffffffffffffffffffffffffffffff1663eb672419828e858e8e8e8e8e8e8e6040518b63ffffffff1660e01b815260040161060499989796959493929190611e4f565b60206040518083038185885af1158015610622573d6000803e3d6000fd5b50505050506040513d601f19601f820116820180604052508101906106479190611efc565b925050509998505050505050505050565b610660610cb1565b6127108111156106a5576040517f08c379a000000000000000000000000000000000000000000000000000000000815260040161069c90611b33565b60405180910390fd5b806001819055507f52b2ee810c3333817a10bb0ea59d08592795f3b8d8a0903baab7c55c363a7737816040516106db919061191d565b60405180910390a150565b600061070f83866106f5610ea4565b7313fbe0d0e5552b8c9c4ae9e2435f38f37355998a610f70565b90507313fbe0d0e5552b8c9c4ae9e2435f38f37355998a73ffffffffffffffffffffffffffffffffffffffff1663f219fa6634878785876040518663ffffffff1660e01b81526004016107659493929190611f29565b6000604051808303818588803b15801561077e57600080fd5b505af1158015610792573d6000803e3d6000fd5b50505050507f10b38d92e4d03db10f47203bde62c9a44ca818a0492c09abc85838592a5d69e76107c0610ea4565b8587866040516107d39493929190611f6e565b60405180910390a15050505050565b60008073ffffffffffffffffffffffffffffffffffffffff168273ffffffffffffffffffffffffffffffffffffffff16036108225761081f610ea4565b91505b600061084b8688610831610ea4565b732ae09702f77a4940621572fbcdae2382d44a2cba610f70565b90507f58d69c24382570996b6c246ce8f34aef8faf30ef55f7efaaf3f3bae047f4d0a7610876610ea4565b8989896040516108899493929190611f6e565b60405180910390a1732ae09702f77a4940621572fbcdae2382d44a2cba73ffffffffffffffffffffffffffffffffffffffff1663e8b99b1b348a8a858a8a8a6040518863ffffffff1660e01b81526004016108e996959493929190611fb3565b60206040518083038185885af1158015610907573d6000803e3d6000fd5b50505050506040513d601f19601f8201168201806040525081019061092c9190611efc565b9150509695505050505050565b60008060009054906101000a900473ffffffffffffffffffffffffffffffffffffffff16905090565b60015481565b60005b828290508110156109bc576109a98484848481811061098d5761098c612014565b5b90506020020160208101906109a29190611a41565b60006102e8565b80806109b490612043565b91505061096b565b50505050565b6000612710600154836109d5919061208b565b6109df91906120fc565b9050919050565b60006109f1836109c2565b90506000838234610a029190611b82565b610a0c9190611bb6565b905080341015610a51576040517f08c379a0000000000000000000000000000000000000000000000000000000008152600401610a4890611c36565b60405180910390fd5b7313fbe0d0e5552b8c9c4ae9e2435f38f37355998a73ffffffffffffffffffffffffffffffffffffffff1663ce0b63ce828785876040518563ffffffff1660e01b8152600401610aa39392919061212d565b6000604051808303818588803b158015610abc57600080fd5b505af1158015610ad0573d6000803e3d6000fd5b50505050507fa5144c708730bdf1c511a799569036285761611328f3c28654a693a42db862b4610afe610ea4565b8686604051610b0f93929190611c56565b60405180910390a15050505050565b600073ffffffffffffffffffffffffffffffffffffffff1660008054906101000a900473ffffffffffffffffffffffffffffffffffffffff1673ffffffffffffffffffffffffffffffffffffffff1614610bad576040517f08c379a0000000000000000000000000000000000000000000000000000000008152600401610ba4906121b0565b60405180910390fd5b600073ffffffffffffffffffffffffffffffffffffffff168173ffffffffffffffffffffffffffffffffffffffff1603610c1f5760006040517f1e4fbdf7000000000000000000000000000000000000000000000000000000008152600401610c1691906118f3565b60405180910390fd5b610c2881610eac565b50565b610c33610cb1565b600073ffffffffffffffffffffffffffffffffffffffff168173ffffffffffffffffffffffffffffffffffffffff1603610ca55760006040517f1e4fbdf7000000000000000000000000000000000000000000000000000000008152600401610c9c91906118f3565b60405180910390fd5b610cae81610eac565b50565b610cb9610ea4565b73ffffffffffffffffffffffffffffffffffffffff16610cd7610939565b73ffffffffffffffffffffffffffffffffffffffff1614610d3657610cfa610ea4565b6040517f118cdaa7000000000000000000000000000000000000000000000000000000008152600401610d2d91906118f3565b60405180910390fd5b565b80471015610d7d57306040517fcd786059000000000000000000000000000000000000000000000000000000008152600401610d7491906118f3565b60405180910390fd5b60008273ffffffffffffffffffffffffffffffffffffffff1682604051610da390612201565b60006040518083038185875af1925050503d8060008114610de0576040519150601f19603f3d011682016040523d82523d6000602084013e610de5565b606091505b5050905080610e20576040517f1425ea4200000000000000000000000000000000000000000000000000000000815260040160405180910390fd5b505050565b610e9f838473ffffffffffffffffffffffffffffffffffffffff1663a9059cbb8585604051602401610e58929190612216565b604051602081830303815290604052915060e01b6020820180517bffffffffffffffffffffffffffffffffffffffffffffffffffffffff8381831617835250505050610fdd565b505050565b600033905090565b60008060009054906101000a900473ffffffffffffffffffffffffffffffffffffffff169050816000806101000a81548173ffffffffffffffffffffffffffffffffffffffff021916908373ffffffffffffffffffffffffffffffffffffffff1602179055508173ffffffffffffffffffffffffffffffffffffffff168173ffffffffffffffffffffffffffffffffffffffff167f8be0079c531659141344cd1fd0a4f28419497f9722a3daafe3b4186f6b6457e060405160405180910390a35050565b6000610f9f8330878773ffffffffffffffffffffffffffffffffffffffff16611074909392919063ffffffff16565b610fa8856109c2565b9050610fd582828673ffffffffffffffffffffffffffffffffffffffff166110f69092919063ffffffff16565b949350505050565b6000611008828473ffffffffffffffffffffffffffffffffffffffff1661120590919063ffffffff16565b9050600081511415801561102d57508080602001905181019061102b9190612277565b155b1561106f57826040517f5274afe700000000000000000000000000000000000000000000000000000000815260040161106691906118f3565b60405180910390fd5b505050565b6110f0848573ffffffffffffffffffffffffffffffffffffffff166323b872dd8686866040516024016110a993929190611c56565b604051602081830303815290604052915060e01b6020820180517bffffffffffffffffffffffffffffffffffffffffffffffffffffffff8381831617835250505050610fdd565b50505050565b60008373ffffffffffffffffffffffffffffffffffffffff1663095ea7b38484604051602401611127929190612216565b604051602081830303815290604052915060e01b6020820180517bffffffffffffffffffffffffffffffffffffffffffffffffffffffff83818316178352505050509050611175848261121b565b6111ff576111f4848573ffffffffffffffffffffffffffffffffffffffff1663095ea7b38660006040516024016111ad9291906122e9565b604051602081830303815290604052915060e01b6020820180517bffffffffffffffffffffffffffffffffffffffffffffffffffffffff8381831617835250505050610fdd565b6111fe8482610fdd565b5b50505050565b6060611213838360006112e2565b905092915050565b60008060008473ffffffffffffffffffffffffffffffffffffffff16846040516112459190612378565b6000604051808303816000865af19150503d8060008114611282576040519150601f19603f3d011682016040523d82523d6000602084013e611287565b606091505b50915091508180156112b557506000815114806112b45750808060200190518101906112b39190612277565b5b5b80156112d8575060008573ffffffffffffffffffffffffffffffffffffffff163b115b9250505092915050565b60608147101561132957306040517fcd78605900000000000000000000000000000000000000000000000000000000815260040161132091906118f3565b60405180910390fd5b6000808573ffffffffffffffffffffffffffffffffffffffff1684866040516113529190612378565b60006040518083038185875af1925050503d806000811461138f576040519150601f19603f3d011682016040523d82523d6000602084013e611394565b606091505b50915091506113a48683836113af565b925050509392505050565b6060826113c4576113bf8261143e565b611436565b600082511480156113ec575060008473ffffffffffffffffffffffffffffffffffffffff163b145b1561142e57836040517f9996b31500000000000000000000000000000000000000000000000000000000815260040161142591906118f3565b60405180910390fd5b819050611437565b5b9392505050565b6000815111156114515780518082602001fd5b6040517f1425ea4200000000000000000000000000000000000000000000000000000000815260040160405180910390fd5b600080fd5b600080fd5b600073ffffffffffffffffffffffffffffffffffffffff82169050919050565b60006114b88261148d565b9050919050565b6114c8816114ad565b81146114d357600080fd5b50565b6000813590506114e5816114bf565b92915050565b60006114f68261148d565b9050919050565b611506816114eb565b811461151157600080fd5b50565b600081359050611523816114fd565b92915050565b6000819050919050565b61153c81611529565b811461154757600080fd5b50565b60008135905061155981611533565b92915050565b60008060006060848603121561157857611577611483565b5b6000611586868287016114d6565b935050602061159786828701611514565b92505060406115a88682870161154a565b9150509250925092565b600080604083850312156115c9576115c8611483565b5b60006115d785828601611514565b92505060206115e88582860161154a565b9150509250929050565b600080fd5b600080fd5b600080fd5b60008083601f840112611617576116166115f2565b5b8235905067ffffffffffffffff811115611634576116336115f7565b5b6020830191508360018202830111156116505761164f6115fc565b5b9250929050565b60008083601f84011261166d5761166c6115f2565b5b8235905067ffffffffffffffff81111561168a576116896115f7565b5b6020830191508360208202830111156116a6576116a56115fc565b5b9250929050565b600080600080600080600080600060e08a8c0312156116cf576116ce611483565b5b60006116dd8c828d01611514565b99505060206116ee8c828d0161154a565b98505060408a013567ffffffffffffffff81111561170f5761170e611488565b5b61171b8c828d01611601565b9750975050606061172e8c828d0161154a565b955050608061173f8c828d0161154a565b94505060a08a013567ffffffffffffffff8111156117605761175f611488565b5b61176c8c828d01611657565b935093505060c061177f8c828d01611514565b9150509295985092959850929598565b6000819050919050565b6117a28161178f565b82525050565b60006020820190506117bd6000830184611799565b92915050565b6000602082840312156117d9576117d8611483565b5b60006117e78482850161154a565b91505092915050565b6000806000806080858703121561180a57611809611483565b5b600061181887828801611514565b945050602061182987828801611514565b935050604061183a8782880161154a565b925050606061184b8782880161154a565b91505092959194509250565b60008060008060008060c0878903121561187457611873611483565b5b600061188289828a01611514565b965050602061189389828a01611514565b95505060406118a489828a0161154a565b94505060606118b589828a0161154a565b93505060806118c689828a0161154a565b92505060a06118d789828a01611514565b9150509295509295509295565b6118ed816114eb565b82525050565b600060208201905061190860008301846118e4565b92915050565b61191781611529565b82525050565b6000602082019050611932600083018461190e565b92915050565b60008083601f84011261194e5761194d6115f2565b5b8235905067ffffffffffffffff81111561196b5761196a6115f7565b5b602083019150836020820283011115611987576119866115fc565b5b9250929050565b6000806000604084860312156119a7576119a6611483565b5b60006119b5868287016114d6565b935050602084013567ffffffffffffffff8111156119d6576119d5611488565b5b6119e286828701611938565b92509250509250925092565b600080600060608486031215611a0757611a06611483565b5b6000611a1586828701611514565b9350506020611a268682870161154a565b9250506040611a378682870161154a565b9150509250925092565b600060208284031215611a5757611a56611483565b5b6000611a6584828501611514565b91505092915050565b600081519050611a7d81611533565b92915050565b600060208284031215611a9957611a98611483565b5b6000611aa784828501611a6e565b91505092915050565b600082825260208201905092915050565b7f6665655261746520697320626967676572207468616e2064656e6f6d696e617460008201527f6f72000000000000000000000000000000000000000000000000000000000000602082015250565b6000611b1d602283611ab0565b9150611b2882611ac1565b604082019050919050565b60006020820190508181036000830152611b4c81611b10565b9050919050565b7f4e487b7100000000000000000000000000000000000000000000000000000000600052601160045260246000fd5b6000611b8d82611529565b9150611b9883611529565b9250828201905080821115611bb057611baf611b53565b5b92915050565b6000611bc182611529565b9150611bcc83611529565b9250828203905081811115611be457611be3611b53565b5b92915050565b7f6e65676174697665206665650000000000000000000000000000000000000000600082015250565b6000611c20600c83611ab0565b9150611c2b82611bea565b602082019050919050565b60006020820190508181036000830152611c4f81611c13565b9050919050565b6000606082019050611c6b60008301866118e4565b611c7860208301856118e4565b611c85604083018461190e565b949350505050565b600082825260208201905092915050565b82818337600083830152505050565b6000601f19601f8301169050919050565b6000611cca8385611c8d565b9350611cd7838584611c9e565b611ce083611cad565b840190509392505050565b600082825260208201905092915050565b6000819050919050565b600082825260208201905092915050565b6000611d238385611d06565b9350611d30838584611c9e565b611d3983611cad565b840190509392505050565b6000611d51848484611d17565b90509392505050565b600080fd5b600080fd5b600080fd5b60008083356001602003843603038112611d8657611d85611d64565b5b83810192508235915060208301925067ffffffffffffffff821115611dae57611dad611d5a565b5b600182023603831315611dc457611dc3611d5f565b5b509250929050565b6000602082019050919050565b6000611de58385611ceb565b935083602084028501611df784611cfc565b8060005b87811015611e3d578484038952611e128284611d69565b611e1d868284611d44565b9550611e2884611dcc565b935060208b019a505050600181019050611dfb565b50829750879450505050509392505050565b600060e082019050611e64600083018c6118e4565b611e71602083018b61190e565b8181036040830152611e8481898b611cbe565b9050611e93606083018861190e565b611ea0608083018761190e565b81810360a0830152611eb3818587611dd9565b9050611ec260c08301846118e4565b9a9950505050505050505050565b611ed98161178f565b8114611ee457600080fd5b50565b600081519050611ef681611ed0565b92915050565b600060208284031215611f1257611f11611483565b5b6000611f2084828501611ee7565b91505092915050565b6000608082019050611f3e60008301876118e4565b611f4b60208301866118e4565b611f58604083018561190e565b611f65606083018461190e565b95945050505050565b6000608082019050611f8360008301876118e4565b611f9060208301866118e4565b611f9d60408301856118e4565b611faa606083018461190e565b95945050505050565b600060c082019050611fc860008301896118e4565b611fd560208301886118e4565b611fe2604083018761190e565b611fef606083018661190e565b611ffc608083018561190e565b61200960a08301846118e4565b979650505050505050565b7f4e487b7100000000000000000000000000000000000000000000000000000000600052603260045260246000fd5b600061204e82611529565b91507fffffffffffffffffffffffffffffffffffffffffffffffffffffffffffffffff82036120805761207f611b53565b5b600182019050919050565b600061209682611529565b91506120a183611529565b92508282026120af81611529565b915082820484148315176120c6576120c5611b53565b5b5092915050565b7f4e487b7100000000000000000000000000000000000000000000000000000000600052601260045260246000fd5b600061210782611529565b915061211283611529565b925082612122576121216120cd565b5b828204905092915050565b600060608201905061214260008301866118e4565b61214f602083018561190e565b61215c604083018461190e565b949350505050565b7f6f776e65722077617320616c726561647920696e697469616c697a6564000000600082015250565b600061219a601d83611ab0565b91506121a582612164565b602082019050919050565b600060208201905081810360008301526121c98161218d565b9050919050565b600081905092915050565b50565b60006121eb6000836121d0565b91506121f6826121db565b600082019050919050565b600061220c826121de565b9150819050919050565b600060408201905061222b60008301856118e4565b612238602083018461190e565b9392505050565b60008115159050919050565b6122548161223f565b811461225f57600080fd5b50565b6000815190506122718161224b565b92915050565b60006020828403121561228d5761228c611483565b5b600061229b84828501612262565b91505092915050565b6000819050919050565b6000819050919050565b60006122d36122ce6122c9846122a4565b6122ae565b611529565b9050919050565b6122e3816122b8565b82525050565b60006040820190506122fe60008301856118e4565b61230b60208301846122da565b9392505050565b600081519050919050565b60005b8381101561233b578082015181840152602081019050612320565b60008484015250505050565b600061235282612312565b61235c81856121d0565b935061236c81856020860161231d565b80840191505092915050565b60006123848284612347565b91508190509291505056fea2646970667358221220964e58a1f1ab8d2159675916cbbbffb126ddd383fa47b32449325e6cff851caa64736f6c63430008140033",
	"linkReferences": {},
	"deployedLinkReferences": {}
}