{
	"_format": "hh-sol-artifact-1",
	"contractName": "L2ScanZkSyncEraBridge",
	"sourceName": "contracts/L2ScanZkSyncEraBridge.sol",
	"abi": [
		{
			"inputs": [
				{
					"internalType": "address",
					"name": "owner",
					"type": "address"
				}
			],
			"name": "OwnableInvalidOwner",
			"type": "error"
		},
		{
			"inputs": [
				{
					"internalType": "address",
					"name": "account",
					"type": "address"
				}
			],
			"name": "OwnableUnauthorizedAccount",
			"type": "error"
		},
		{
			"anonymous": false,
			"inputs": [
				{
					"indexed": true,
					"internalType": "address",
					"name": "previousOwner",
					"type": "address"
				},
				{
					"indexed": true,
					"internalType": "address",
					"name": "newOwner",
					"type": "address"
				}
			],
			"name": "OwnershipTransferred",
			"type": "event"
		},
		{
			"anonymous": false,
			"inputs": [
				{
					"indexed": false,
					"internalType": "uint256",
					"name": "feeRate",
					"type": "uint256"
				}
			],
			"name": "UpdateFeeRate",
			"type": "event"
		},
		{
			"anonymous": false,
			"inputs": [
				{
					"indexed": false,
					"internalType": "address",
					"name": "from",
					"type": "address"
				},
				{
					"indexed": false,
					"internalType": "address",
					"name": "to",
					"type": "address"
				},
				{
					"indexed": false,
					"internalType": "address",
					"name": "token",
					"type": "address"
				},
				{
					"indexed": false,
					"internalType": "uint256",
					"name": "amount",
					"type": "uint256"
				}
			],
			"name": "ZkSyncEraWithdrawERC20Event",
			"type": "event"
		},
		{
			"anonymous": false,
			"inputs": [
				{
					"indexed": false,
					"internalType": "address",
					"name": "from",
					"type": "address"
				},
				{
					"indexed": false,
					"internalType": "address",
					"name": "to",
					"type": "address"
				},
				{
					"indexed": false,
					"internalType": "uint256",
					"name": "amount",
					"type": "uint256"
				}
			],
			"name": "ZkSyncEraWithdrawETHEvent",
			"type": "event"
		},
		{
			"inputs": [
				{
					"internalType": "uint256",
					"name": "amount",
					"type": "uint256"
				}
			],
			"name": "amountAfterFee",
			"outputs": [
				{
					"internalType": "uint256",
					"name": "",
					"type": "uint256"
				}
			],
			"stateMutability": "view",
			"type": "function"
		},
		{
			"inputs": [],
			"name": "feeRate",
			"outputs": [
				{
					"internalType": "uint256",
					"name": "",
					"type": "uint256"
				}
			],
			"stateMutability": "view",
			"type": "function"
		},
		{
			"inputs": [
				{
					"internalType": "address",
					"name": "initialOwner",
					"type": "address"
				}
			],
			"name": "initialize",
			"outputs": [],
			"stateMutability": "nonpayable",
			"type": "function"
		},
		{
			"inputs": [
				{
					"internalType": "address",
					"name": "initialOwner",
					"type": "address"
				},
				{
					"internalType": "uint256",
					"name": "_feeRate",
					"type": "uint256"
				}
			],
			"name": "initializeFeeCollector",
			"outputs": [],
			"stateMutability": "nonpayable",
			"type": "function"
		},
		{
			"inputs": [],
			"name": "owner",
			"outputs": [
				{
					"internalType": "address",
					"name": "",
					"type": "address"
				}
			],
			"stateMutability": "view",
			"type": "function"
		},
		{
			"inputs": [
				{
					"internalType": "uint256",
					"name": "_feeRate",
					"type": "uint256"
				}
			],
			"name": "setFeeRate",
			"outputs": [],
			"stateMutability": "nonpayable",
			"type": "function"
		},
		{
			"inputs": [
				{
					"internalType": "address",
					"name": "newOwner",
					"type": "address"
				}
			],
			"name": "transferOwnership",
			"outputs": [],
			"stateMutability": "nonpayable",
			"type": "function"
		},
		{
			"inputs": [
				{
					"internalType": "address",
					"name": "_l1Receiver",
					"type": "address"
				},
				{
					"internalType": "address",
					"name": "_l2Token",
					"type": "address"
				},
				{
					"internalType": "uint256",
					"name": "_amount",
					"type": "uint256"
				}
			],
			"name": "withdrawERC20ToL1",
			"outputs": [],
			"stateMutability": "payable",
			"type": "function"
		},
		{
			"inputs": [
				{
					"internalType": "address",
					"name": "to",
					"type": "address"
				}
			],
			"name": "withdrawETHToL1",
			"outputs": [],
			"stateMutability": "payable",
			"type": "function"
		},
		{
			"inputs": [
				{
					"internalType": "address payable",
					"name": "recipient",
					"type": "address"
				},
				{
					"internalType": "address",
					"name": "asset",
					"type": "address"
				},
				{
					"internalType": "uint256",
					"name": "amount",
					"type": "uint256"
				}
			],
			"name": "withdrawFee",
			"outputs": [],
			"stateMutability": "nonpayable",
			"type": "function"
		},
		{
			"inputs": [
				{
					"internalType": "address payable",
					"name": "recipient",
					"type": "address"
				},
				{
					"internalType": "address[]",
					"name": "assets",
					"type": "address[]"
				}
			],
			"name": "withdrawFees",
			"outputs": [],
			"stateMutability": "nonpayable",
			"type": "function"
		}
	],
	"bytecode": "0x608060405234801561001057600080fd5b506119a1806100206000396000f3fe60806040526004361061009c5760003560e01c806396e697f51161006457806396e697f514610163578063978bbdb91461017f5780639b04ce29146101aa578063aa6cd24b146101d3578063c4d66de814610210578063f2fde38b146102395761009c565b80631095b6d7146100a157806319573dc8146100ca57806324643380146100e657806345596e2e1461010f5780638da5cb5b14610138575b600080fd5b3480156100ad57600080fd5b506100c860048036038101906100c39190610fa7565b610262565b005b6100e460048036038101906100df9190610ffa565b61038e565b005b3480156100f257600080fd5b5061010d6004803603810190610108919061104d565b610471565b005b34801561011b57600080fd5b506101366004803603810190610131919061108d565b610516565b005b34801561014457600080fd5b5061014d6105a4565b60405161015a91906110c9565b60405180910390f35b61017d600480360381019061017891906110e4565b6105cd565b005b34801561018b57600080fd5b50610194610688565b6040516101a19190611120565b60405180910390f35b3480156101b657600080fd5b506101d160048036038101906101cc91906111a0565b61068e565b005b3480156101df57600080fd5b506101fa60048036038101906101f5919061108d565b6106e8565b6040516102079190611120565b60405180910390f35b34801561021c57600080fd5b50610237600480360381019061023291906110e4565b61070c565b005b34801561024557600080fd5b50610260600480360381019061025b91906110e4565b610819565b005b61026a61089f565b600073ffffffffffffffffffffffffffffffffffffffff168273ffffffffffffffffffffffffffffffffffffffff16036102d857600081036102aa574790505b6102d3818473ffffffffffffffffffffffffffffffffffffffff1661092690919063ffffffff16565b610389565b6000810361035d578173ffffffffffffffffffffffffffffffffffffffff166370a08231306040518263ffffffff1660e01b815260040161031991906110c9565b602060405180830381865afa158015610336573d6000803e3d6000fd5b505050506040513d601f19601f8201168201806040525081019061035a9190611215565b90505b61038883828473ffffffffffffffffffffffffffffffffffffffff16610a1a9092919063ffffffff16565b5b505050565b60006103a2828461039d610aa0565b610aa8565b905073681a1afdc2e06776816386500d2d461a6c96cb4573ffffffffffffffffffffffffffffffffffffffff1663d9caed128585846040518463ffffffff1660e01b81526004016103f593929190611242565b600060405180830381600087803b15801561040f57600080fd5b505af1158015610423573d6000803e3d6000fd5b505050507fa40d2b522e84eae258c1954d9a2545653ec1201ab1180fceeaac2e9434f9bac7610450610aa0565b8585856040516104639493929190611279565b60405180910390a150505050565b600073ffffffffffffffffffffffffffffffffffffffff166104916105a4565b73ffffffffffffffffffffffffffffffffffffffff16036104b6576104b58261070c565b5b6104c66104c1610aa0565b610ae9565b61271081111561050b576040517f08c379a000000000000000000000000000000000000000000000000000000000815260040161050290611341565b60405180910390fd5b806001819055505050565b61051e61089f565b612710811115610563576040517f08c379a000000000000000000000000000000000000000000000000000000000815260040161055a90611341565b60405180910390fd5b806001819055507f52b2ee810c3333817a10bb0ea59d08592795f3b8d8a0903baab7c55c363a7737816040516105999190611120565b60405180910390a150565b60008060009054906101000a900473ffffffffffffffffffffffffffffffffffffffff16905090565b61800a73ffffffffffffffffffffffffffffffffffffffff166351cff8d96105f4346106e8565b836040518363ffffffff1660e01b815260040161061191906110c9565b6000604051808303818588803b15801561062a57600080fd5b505af115801561063e573d6000803e3d6000fd5b50505050507fb6e74ef0d896def9db51715b8b14e6440667b68096ea5fd1edc73d000199ea8661066c610aa0565b823460405161067d93929190611242565b60405180910390a150565b60015481565b60005b828290508110156106e2576106cf848484848181106106b3576106b2611361565b5b90506020020160208101906106c891906110e4565b6000610262565b80806106da906113bf565b915050610691565b50505050565b6000612710600154836106fb9190611407565b6107059190611478565b9050919050565b600073ffffffffffffffffffffffffffffffffffffffff1660008054906101000a900473ffffffffffffffffffffffffffffffffffffffff1673ffffffffffffffffffffffffffffffffffffffff161461079b576040517f08c379a0000000000000000000000000000000000000000000000000000000008152600401610792906114f5565b60405180910390fd5b600073ffffffffffffffffffffffffffffffffffffffff168173ffffffffffffffffffffffffffffffffffffffff160361080d5760006040517f1e4fbdf700000000000000000000000000000000000000000000000000000000815260040161080491906110c9565b60405180910390fd5b61081681610ae9565b50565b61082161089f565b600073ffffffffffffffffffffffffffffffffffffffff168173ffffffffffffffffffffffffffffffffffffffff16036108935760006040517f1e4fbdf700000000000000000000000000000000000000000000000000000000815260040161088a91906110c9565b60405180910390fd5b61089c81610ae9565b50565b6108a7610aa0565b73ffffffffffffffffffffffffffffffffffffffff166108c56105a4565b73ffffffffffffffffffffffffffffffffffffffff1614610924576108e8610aa0565b6040517f118cdaa700000000000000000000000000000000000000000000000000000000815260040161091b91906110c9565b60405180910390fd5b565b80471015610969576040517f08c379a000000000000000000000000000000000000000000000000000000000815260040161096090611561565b60405180910390fd5b60008273ffffffffffffffffffffffffffffffffffffffff168260405161098f906115b2565b60006040518083038185875af1925050503d80600081146109cc576040519150601f19603f3d011682016040523d82523d6000602084013e6109d1565b606091505b5050905080610a15576040517f08c379a0000000000000000000000000000000000000000000000000000000008152600401610a0c90611639565b60405180910390fd5b505050565b610a9b8363a9059cbb60e01b8484604051602401610a39929190611659565b604051602081830303815290604052907bffffffffffffffffffffffffffffffffffffffffffffffffffffffff19166020820180517bffffffffffffffffffffffffffffffffffffffffffffffffffffffff8381831617835250505050610bad565b505050565b600033905090565b6000610ad78230868673ffffffffffffffffffffffffffffffffffffffff16610c75909392919063ffffffff16565b610ae0846106e8565b90509392505050565b60008060009054906101000a900473ffffffffffffffffffffffffffffffffffffffff169050816000806101000a81548173ffffffffffffffffffffffffffffffffffffffff021916908373ffffffffffffffffffffffffffffffffffffffff1602179055508173ffffffffffffffffffffffffffffffffffffffff168173ffffffffffffffffffffffffffffffffffffffff167f8be0079c531659141344cd1fd0a4f28419497f9722a3daafe3b4186f6b6457e060405160405180910390a35050565b6000610c0f826040518060400160405280602081526020017f5361666545524332303a206c6f772d6c6576656c2063616c6c206661696c65648152508573ffffffffffffffffffffffffffffffffffffffff16610cfe9092919063ffffffff16565b9050600081511480610c31575080806020019051810190610c3091906116ba565b5b610c70576040517f08c379a0000000000000000000000000000000000000000000000000000000008152600401610c6790611759565b60405180910390fd5b505050565b610cf8846323b872dd60e01b858585604051602401610c9693929190611242565b604051602081830303815290604052907bffffffffffffffffffffffffffffffffffffffffffffffffffffffff19166020820180517bffffffffffffffffffffffffffffffffffffffffffffffffffffffff8381831617835250505050610bad565b50505050565b6060610d0d8484600085610d16565b90509392505050565b606082471015610d5b576040517f08c379a0000000000000000000000000000000000000000000000000000000008152600401610d52906117eb565b60405180910390fd5b6000808673ffffffffffffffffffffffffffffffffffffffff168587604051610d849190611871565b60006040518083038185875af1925050503d8060008114610dc1576040519150601f19603f3d011682016040523d82523d6000602084013e610dc6565b606091505b5091509150610dd787838387610de3565b92505050949350505050565b60608315610e45576000835103610e3d57610dfd85610e58565b610e3c576040517f08c379a0000000000000000000000000000000000000000000000000000000008152600401610e33906118d4565b60405180910390fd5b5b829050610e50565b610e4f8383610e7b565b5b949350505050565b6000808273ffffffffffffffffffffffffffffffffffffffff163b119050919050565b600082511115610e8e5781518083602001fd5b806040517f08c379a0000000000000000000000000000000000000000000000000000000008152600401610ec29190611949565b60405180910390fd5b600080fd5b600080fd5b600073ffffffffffffffffffffffffffffffffffffffff82169050919050565b6000610f0082610ed5565b9050919050565b610f1081610ef5565b8114610f1b57600080fd5b50565b600081359050610f2d81610f07565b92915050565b6000610f3e82610ed5565b9050919050565b610f4e81610f33565b8114610f5957600080fd5b50565b600081359050610f6b81610f45565b92915050565b6000819050919050565b610f8481610f71565b8114610f8f57600080fd5b50565b600081359050610fa181610f7b565b92915050565b600080600060608486031215610fc057610fbf610ecb565b5b6000610fce86828701610f1e565b9350506020610fdf86828701610f5c565b9250506040610ff086828701610f92565b9150509250925092565b60008060006060848603121561101357611012610ecb565b5b600061102186828701610f5c565b935050602061103286828701610f5c565b925050604061104386828701610f92565b9150509250925092565b6000806040838503121561106457611063610ecb565b5b600061107285828601610f5c565b925050602061108385828601610f92565b9150509250929050565b6000602082840312156110a3576110a2610ecb565b5b60006110b184828501610f92565b91505092915050565b6110c381610f33565b82525050565b60006020820190506110de60008301846110ba565b92915050565b6000602082840312156110fa576110f9610ecb565b5b600061110884828501610f5c565b91505092915050565b61111a81610f71565b82525050565b60006020820190506111356000830184611111565b92915050565b600080fd5b600080fd5b600080fd5b60008083601f8401126111605761115f61113b565b5b8235905067ffffffffffffffff81111561117d5761117c611140565b5b60208301915083602082028301111561119957611198611145565b5b9250929050565b6000806000604084860312156111b9576111b8610ecb565b5b60006111c786828701610f1e565b935050602084013567ffffffffffffffff8111156111e8576111e7610ed0565b5b6111f48682870161114a565b92509250509250925092565b60008151905061120f81610f7b565b92915050565b60006020828403121561122b5761122a610ecb565b5b600061123984828501611200565b91505092915050565b600060608201905061125760008301866110ba565b61126460208301856110ba565b6112716040830184611111565b949350505050565b600060808201905061128e60008301876110ba565b61129b60208301866110ba565b6112a860408301856110ba565b6112b56060830184611111565b95945050505050565b600082825260208201905092915050565b7f6665655261746520697320626967676572207468616e2064656e6f6d696e617460008201527f6f72000000000000000000000000000000000000000000000000000000000000602082015250565b600061132b6022836112be565b9150611336826112cf565b604082019050919050565b6000602082019050818103600083015261135a8161131e565b9050919050565b7f4e487b7100000000000000000000000000000000000000000000000000000000600052603260045260246000fd5b7f4e487b7100000000000000000000000000000000000000000000000000000000600052601160045260246000fd5b60006113ca82610f71565b91507fffffffffffffffffffffffffffffffffffffffffffffffffffffffffffffffff82036113fc576113fb611390565b5b600182019050919050565b600061141282610f71565b915061141d83610f71565b925082820261142b81610f71565b9150828204841483151761144257611441611390565b5b5092915050565b7f4e487b7100000000000000000000000000000000000000000000000000000000600052601260045260246000fd5b600061148382610f71565b915061148e83610f71565b92508261149e5761149d611449565b5b828204905092915050565b7f6f776e65722077617320616c726561647920696e697469616c697a6564000000600082015250565b60006114df601d836112be565b91506114ea826114a9565b602082019050919050565b6000602082019050818103600083015261150e816114d2565b9050919050565b7f416464726573733a20696e73756666696369656e742062616c616e6365000000600082015250565b600061154b601d836112be565b915061155682611515565b602082019050919050565b6000602082019050818103600083015261157a8161153e565b9050919050565b600081905092915050565b50565b600061159c600083611581565b91506115a78261158c565b600082019050919050565b60006115bd8261158f565b9150819050919050565b7f416464726573733a20756e61626c6520746f2073656e642076616c75652c207260008201527f6563697069656e74206d61792068617665207265766572746564000000000000602082015250565b6000611623603a836112be565b915061162e826115c7565b604082019050919050565b6000602082019050818103600083015261165281611616565b9050919050565b600060408201905061166e60008301856110ba565b61167b6020830184611111565b9392505050565b60008115159050919050565b61169781611682565b81146116a257600080fd5b50565b6000815190506116b48161168e565b92915050565b6000602082840312156116d0576116cf610ecb565b5b60006116de848285016116a5565b91505092915050565b7f5361666545524332303a204552433230206f7065726174696f6e20646964206e60008201527f6f74207375636365656400000000000000000000000000000000000000000000602082015250565b6000611743602a836112be565b915061174e826116e7565b604082019050919050565b6000602082019050818103600083015261177281611736565b9050919050565b7f416464726573733a20696e73756666696369656e742062616c616e636520666f60008201527f722063616c6c0000000000000000000000000000000000000000000000000000602082015250565b60006117d56026836112be565b91506117e082611779565b604082019050919050565b60006020820190508181036000830152611804816117c8565b9050919050565b600081519050919050565b60005b83811015611834578082015181840152602081019050611819565b60008484015250505050565b600061184b8261180b565b6118558185611581565b9350611865818560208601611816565b80840191505092915050565b600061187d8284611840565b915081905092915050565b7f416464726573733a2063616c6c20746f206e6f6e2d636f6e7472616374000000600082015250565b60006118be601d836112be565b91506118c982611888565b602082019050919050565b600060208201905081810360008301526118ed816118b1565b9050919050565b600081519050919050565b6000601f19601f8301169050919050565b600061191b826118f4565b61192581856112be565b9350611935818560208601611816565b61193e816118ff565b840191505092915050565b600060208201905081810360008301526119638184611910565b90509291505056fea264697066735822122079ef3ed143fb6e154849789e0766e532e8a4ca969b5e9618c3db02ed5852c20364736f6c63430008140033",
	"linkReferences": {},
	"deployedLinkReferences": {}
}