{
	"_format": "hh-sol-artifact-1",
	"contractName": "L2ScanScrollBridge",
	"sourceName": "contracts/L2ScanScrollBridge.sol",
	"abi": [
		{
			"inputs": [
				{
					"internalType": "address",
					"name": "target",
					"type": "address"
				}
			],
			"name": "AddressEmptyCode",
			"type": "error"
		},
		{
			"inputs": [
				{
					"internalType": "address",
					"name": "account",
					"type": "address"
				}
			],
			"name": "AddressInsufficientBalance",
			"type": "error"
		},
		{
			"inputs": [],
			"name": "FailedInnerCall",
			"type": "error"
		},
		{
			"inputs": [
				{
					"internalType": "address",
					"name": "owner",
					"type": "address"
				}
			],
			"name": "OwnableInvalidOwner",
			"type": "error"
		},
		{
			"inputs": [
				{
					"internalType": "address",
					"name": "account",
					"type": "address"
				}
			],
			"name": "OwnableUnauthorizedAccount",
			"type": "error"
		},
		{
			"inputs": [
				{
					"internalType": "address",
					"name": "token",
					"type": "address"
				}
			],
			"name": "SafeERC20FailedOperation",
			"type": "error"
		},
		{
			"anonymous": false,
			"inputs": [
				{
					"indexed": true,
					"internalType": "address",
					"name": "previousOwner",
					"type": "address"
				},
				{
					"indexed": true,
					"internalType": "address",
					"name": "newOwner",
					"type": "address"
				}
			],
			"name": "OwnershipTransferred",
			"type": "event"
		},
		{
			"anonymous": false,
			"inputs": [
				{
					"indexed": false,
					"internalType": "address",
					"name": "from",
					"type": "address"
				},
				{
					"indexed": false,
					"internalType": "address",
					"name": "to",
					"type": "address"
				},
				{
					"indexed": false,
					"internalType": "address",
					"name": "token",
					"type": "address"
				},
				{
					"indexed": false,
					"internalType": "uint256",
					"name": "amount",
					"type": "uint256"
				}
			],
			"name": "ScrollWithdrawERC20Event",
			"type": "event"
		},
		{
			"anonymous": false,
			"inputs": [
				{
					"indexed": false,
					"internalType": "address",
					"name": "from",
					"type": "address"
				},
				{
					"indexed": false,
					"internalType": "address",
					"name": "to",
					"type": "address"
				},
				{
					"indexed": false,
					"internalType": "uint256",
					"name": "amount",
					"type": "uint256"
				}
			],
			"name": "ScrollWithdrawETHEvent",
			"type": "event"
		},
		{
			"anonymous": false,
			"inputs": [
				{
					"indexed": false,
					"internalType": "uint256",
					"name": "feeRate",
					"type": "uint256"
				}
			],
			"name": "UpdateFeeRate",
			"type": "event"
		},
		{
			"inputs": [
				{
					"internalType": "uint256",
					"name": "amount",
					"type": "uint256"
				}
			],
			"name": "amountAfterFee",
			"outputs": [
				{
					"internalType": "uint256",
					"name": "",
					"type": "uint256"
				}
			],
			"stateMutability": "view",
			"type": "function"
		},
		{
			"inputs": [],
			"name": "feeRate",
			"outputs": [
				{
					"internalType": "uint256",
					"name": "",
					"type": "uint256"
				}
			],
			"stateMutability": "view",
			"type": "function"
		},
		{
			"inputs": [
				{
					"internalType": "address",
					"name": "initialOwner",
					"type": "address"
				}
			],
			"name": "initialize",
			"outputs": [],
			"stateMutability": "nonpayable",
			"type": "function"
		},
		{
			"inputs": [
				{
					"internalType": "address",
					"name": "initialOwner",
					"type": "address"
				},
				{
					"internalType": "uint256",
					"name": "_feeRate",
					"type": "uint256"
				}
			],
			"name": "initializeFeeCollector",
			"outputs": [],
			"stateMutability": "nonpayable",
			"type": "function"
		},
		{
			"inputs": [],
			"name": "owner",
			"outputs": [
				{
					"internalType": "address",
					"name": "",
					"type": "address"
				}
			],
			"stateMutability": "view",
			"type": "function"
		},
		{
			"inputs": [
				{
					"internalType": "uint256",
					"name": "_feeRate",
					"type": "uint256"
				}
			],
			"name": "setFeeRate",
			"outputs": [],
			"stateMutability": "nonpayable",
			"type": "function"
		},
		{
			"inputs": [
				{
					"internalType": "address",
					"name": "newOwner",
					"type": "address"
				}
			],
			"name": "transferOwnership",
			"outputs": [],
			"stateMutability": "nonpayable",
			"type": "function"
		},
		{
			"inputs": [
				{
					"internalType": "address",
					"name": "_token",
					"type": "address"
				},
				{
					"internalType": "address",
					"name": "_to",
					"type": "address"
				},
				{
					"internalType": "uint256",
					"name": "_amount",
					"type": "uint256"
				},
				{
					"internalType": "uint256",
					"name": "_gasLimit",
					"type": "uint256"
				}
			],
			"name": "withdrawERC20ToL1",
			"outputs": [],
			"stateMutability": "payable",
			"type": "function"
		},
		{
			"inputs": [
				{
					"internalType": "address",
					"name": "_to",
					"type": "address"
				},
				{
					"internalType": "uint256",
					"name": "_amount",
					"type": "uint256"
				},
				{
					"internalType": "uint256",
					"name": "_gasLimit",
					"type": "uint256"
				}
			],
			"name": "withdrawETHToL1",
			"outputs": [],
			"stateMutability": "payable",
			"type": "function"
		},
		{
			"inputs": [
				{
					"internalType": "address payable",
					"name": "recipient",
					"type": "address"
				},
				{
					"internalType": "address",
					"name": "asset",
					"type": "address"
				},
				{
					"internalType": "uint256",
					"name": "amount",
					"type": "uint256"
				}
			],
			"name": "withdrawFee",
			"outputs": [],
			"stateMutability": "nonpayable",
			"type": "function"
		},
		{
			"inputs": [
				{
					"internalType": "address payable",
					"name": "recipient",
					"type": "address"
				},
				{
					"internalType": "address[]",
					"name": "assets",
					"type": "address[]"
				}
			],
			"name": "withdrawFees",
			"outputs": [],
			"stateMutability": "nonpayable",
			"type": "function"
		}
	],
	"bytecode": "0x608060405234801561001057600080fd5b50611b65806100206000396000f3fe60806040526004361061009c5760003560e01c80638da5cb5b116100645780638da5cb5b14610154578063978bbdb91461017f5780639b04ce29146101aa578063aa6cd24b146101d3578063c4d66de814610210578063f2fde38b146102395761009c565b80631095b6d7146100a157806312621c87146100ca57806324643380146100e657806345596e2e1461010f57806354fca95014610138575b600080fd5b3480156100ad57600080fd5b506100c860048036038101906100c39190611271565b610262565b005b6100e460048036038101906100df91906112c4565b61038e565b005b3480156100f257600080fd5b5061010d60048036038101906101089190611317565b610467565b005b34801561011b57600080fd5b5061013660048036038101906101319190611357565b61050c565b005b610152600480360381019061014d9190611384565b61059a565b005b34801561016057600080fd5b50610169610783565b60405161017691906113fa565b60405180910390f35b34801561018b57600080fd5b506101946107ac565b6040516101a19190611424565b60405180910390f35b3480156101b657600080fd5b506101d160048036038101906101cc91906114a4565b6107b2565b005b3480156101df57600080fd5b506101fa60048036038101906101f59190611357565b61080c565b6040516102079190611424565b60405180910390f35b34801561021c57600080fd5b5061023760048036038101906102329190611504565b610830565b005b34801561024557600080fd5b50610260600480360381019061025b9190611504565b61093d565b005b61026a6109c3565b600073ffffffffffffffffffffffffffffffffffffffff168273ffffffffffffffffffffffffffffffffffffffff16036102d857600081036102aa574790505b6102d3818473ffffffffffffffffffffffffffffffffffffffff16610a4a90919063ffffffff16565b610389565b6000810361035d578173ffffffffffffffffffffffffffffffffffffffff166370a08231306040518263ffffffff1660e01b815260040161031991906113fa565b602060405180830381865afa158015610336573d6000803e3d6000fd5b505050506040513d601f19601f8201168201806040525081019061035a9190611546565b90505b61038883828473ffffffffffffffffffffffffffffffffffffffff16610b379092919063ffffffff16565b5b505050565b60006103998361080c565b9050739ad3c5617ecaa556d6e166787a9708190717123073ffffffffffffffffffffffffffffffffffffffff16632fcc29fa828684866040518563ffffffff1660e01b81526004016103ed93929190611573565b6000604051808303818588803b15801561040657600080fd5b505af115801561041a573d6000803e3d6000fd5b50505050507f46ddb8430fc8236971d3d9d0f3f1756bbf2f2912cc1d31346d6c0e2e97bebd5d610448610bb6565b8585604051610459939291906115aa565b60405180910390a150505050565b600073ffffffffffffffffffffffffffffffffffffffff16610487610783565b73ffffffffffffffffffffffffffffffffffffffff16036104ac576104ab82610830565b5b6104bc6104b7610bb6565b610bbe565b612710811115610501576040517f08c379a00000000000000000000000000000000000000000000000000000000081526004016104f890611664565b60405180910390fd5b806001819055505050565b6105146109c3565b612710811115610559576040517f08c379a000000000000000000000000000000000000000000000000000000000815260040161055090611664565b60405180910390fd5b806001819055507f52b2ee810c3333817a10bb0ea59d08592795f3b8d8a0903baab7c55c363a77378160405161058f9190611424565b60405180910390a150565b6000739ad3c5617ecaa556d6e166787a9708190717123073ffffffffffffffffffffffffffffffffffffffff166343c66741866040518263ffffffff1660e01b81526004016105e991906113fa565b602060405180830381865afa158015610606573d6000803e3d6000fd5b505050506040513d601f19601f8201168201806040525081019061062a9190611699565b9050600073ffffffffffffffffffffffffffffffffffffffff168173ffffffffffffffffffffffffffffffffffffffff160361069b576040517f08c379a000000000000000000000000000000000000000000000000000000000815260040161069290611712565b60405180910390fd5b60006106b084876106aa610bb6565b85610c82565b9050739ad3c5617ecaa556d6e166787a9708190717123073ffffffffffffffffffffffffffffffffffffffff1663a93a4af9878784876040518563ffffffff1660e01b81526004016107059493929190611732565b600060405180830381600087803b15801561071f57600080fd5b505af1158015610733573d6000803e3d6000fd5b505050507fff03707941b110f1c294c6493567216f783c74c2cdf7b7486896f85fa6f0192e610760610bb6565b8688876040516107739493929190611777565b60405180910390a1505050505050565b60008060009054906101000a900473ffffffffffffffffffffffffffffffffffffffff16905090565b60015481565b60005b82829050811015610806576107f3848484848181106107d7576107d66117bc565b5b90506020020160208101906107ec9190611504565b6000610262565b80806107fe9061181a565b9150506107b5565b50505050565b60006127106001548361081f9190611862565b61082991906118d3565b9050919050565b600073ffffffffffffffffffffffffffffffffffffffff1660008054906101000a900473ffffffffffffffffffffffffffffffffffffffff1673ffffffffffffffffffffffffffffffffffffffff16146108bf576040517f08c379a00000000000000000000000000000000000000000000000000000000081526004016108b690611950565b60405180910390fd5b600073ffffffffffffffffffffffffffffffffffffffff168173ffffffffffffffffffffffffffffffffffffffff16036109315760006040517f1e4fbdf700000000000000000000000000000000000000000000000000000000815260040161092891906113fa565b60405180910390fd5b61093a81610bbe565b50565b6109456109c3565b600073ffffffffffffffffffffffffffffffffffffffff168173ffffffffffffffffffffffffffffffffffffffff16036109b75760006040517f1e4fbdf70000000000000000000000000000000000000000000000000000000081526004016109ae91906113fa565b60405180910390fd5b6109c081610bbe565b50565b6109cb610bb6565b73ffffffffffffffffffffffffffffffffffffffff166109e9610783565b73ffffffffffffffffffffffffffffffffffffffff1614610a4857610a0c610bb6565b6040517f118cdaa7000000000000000000000000000000000000000000000000000000008152600401610a3f91906113fa565b60405180910390fd5b565b80471015610a8f57306040517fcd786059000000000000000000000000000000000000000000000000000000008152600401610a8691906113fa565b60405180910390fd5b60008273ffffffffffffffffffffffffffffffffffffffff1682604051610ab5906119a1565b60006040518083038185875af1925050503d8060008114610af2576040519150601f19603f3d011682016040523d82523d6000602084013e610af7565b606091505b5050905080610b32576040517f1425ea4200000000000000000000000000000000000000000000000000000000815260040160405180910390fd5b505050565b610bb1838473ffffffffffffffffffffffffffffffffffffffff1663a9059cbb8585604051602401610b6a9291906119b6565b604051602081830303815290604052915060e01b6020820180517bffffffffffffffffffffffffffffffffffffffffffffffffffffffff8381831617835250505050610cef565b505050565b600033905090565b60008060009054906101000a900473ffffffffffffffffffffffffffffffffffffffff169050816000806101000a81548173ffffffffffffffffffffffffffffffffffffffff021916908373ffffffffffffffffffffffffffffffffffffffff1602179055508173ffffffffffffffffffffffffffffffffffffffff168173ffffffffffffffffffffffffffffffffffffffff167f8be0079c531659141344cd1fd0a4f28419497f9722a3daafe3b4186f6b6457e060405160405180910390a35050565b6000610cb18330878773ffffffffffffffffffffffffffffffffffffffff16610d86909392919063ffffffff16565b610cba8561080c565b9050610ce782828673ffffffffffffffffffffffffffffffffffffffff16610e089092919063ffffffff16565b949350505050565b6000610d1a828473ffffffffffffffffffffffffffffffffffffffff16610f1790919063ffffffff16565b90506000815114158015610d3f575080806020019051810190610d3d9190611a17565b155b15610d8157826040517f5274afe7000000000000000000000000000000000000000000000000000000008152600401610d7891906113fa565b60405180910390fd5b505050565b610e02848573ffffffffffffffffffffffffffffffffffffffff166323b872dd868686604051602401610dbb939291906115aa565b604051602081830303815290604052915060e01b6020820180517bffffffffffffffffffffffffffffffffffffffffffffffffffffffff8381831617835250505050610cef565b50505050565b60008373ffffffffffffffffffffffffffffffffffffffff1663095ea7b38484604051602401610e399291906119b6565b604051602081830303815290604052915060e01b6020820180517bffffffffffffffffffffffffffffffffffffffffffffffffffffffff83818316178352505050509050610e878482610f2d565b610f1157610f06848573ffffffffffffffffffffffffffffffffffffffff1663095ea7b3866000604051602401610ebf929190611a89565b604051602081830303815290604052915060e01b6020820180517bffffffffffffffffffffffffffffffffffffffffffffffffffffffff8381831617835250505050610cef565b610f108482610cef565b5b50505050565b6060610f2583836000610ff4565b905092915050565b60008060008473ffffffffffffffffffffffffffffffffffffffff1684604051610f579190611b18565b6000604051808303816000865af19150503d8060008114610f94576040519150601f19603f3d011682016040523d82523d6000602084013e610f99565b606091505b5091509150818015610fc75750600081511480610fc6575080806020019051810190610fc59190611a17565b5b5b8015610fea575060008573ffffffffffffffffffffffffffffffffffffffff163b115b9250505092915050565b60608147101561103b57306040517fcd78605900000000000000000000000000000000000000000000000000000000815260040161103291906113fa565b60405180910390fd5b6000808573ffffffffffffffffffffffffffffffffffffffff1684866040516110649190611b18565b60006040518083038185875af1925050503d80600081146110a1576040519150601f19603f3d011682016040523d82523d6000602084013e6110a6565b606091505b50915091506110b68683836110c1565b925050509392505050565b6060826110d6576110d182611150565b611148565b600082511480156110fe575060008473ffffffffffffffffffffffffffffffffffffffff163b145b1561114057836040517f9996b31500000000000000000000000000000000000000000000000000000000815260040161113791906113fa565b60405180910390fd5b819050611149565b5b9392505050565b6000815111156111635780518082602001fd5b6040517f1425ea4200000000000000000000000000000000000000000000000000000000815260040160405180910390fd5b600080fd5b600080fd5b600073ffffffffffffffffffffffffffffffffffffffff82169050919050565b60006111ca8261119f565b9050919050565b6111da816111bf565b81146111e557600080fd5b50565b6000813590506111f7816111d1565b92915050565b60006112088261119f565b9050919050565b611218816111fd565b811461122357600080fd5b50565b6000813590506112358161120f565b92915050565b6000819050919050565b61124e8161123b565b811461125957600080fd5b50565b60008135905061126b81611245565b92915050565b60008060006060848603121561128a57611289611195565b5b6000611298868287016111e8565b93505060206112a986828701611226565b92505060406112ba8682870161125c565b9150509250925092565b6000806000606084860312156112dd576112dc611195565b5b60006112eb86828701611226565b93505060206112fc8682870161125c565b925050604061130d8682870161125c565b9150509250925092565b6000806040838503121561132e5761132d611195565b5b600061133c85828601611226565b925050602061134d8582860161125c565b9150509250929050565b60006020828403121561136d5761136c611195565b5b600061137b8482850161125c565b91505092915050565b6000806000806080858703121561139e5761139d611195565b5b60006113ac87828801611226565b94505060206113bd87828801611226565b93505060406113ce8782880161125c565b92505060606113df8782880161125c565b91505092959194509250565b6113f4816111fd565b82525050565b600060208201905061140f60008301846113eb565b92915050565b61141e8161123b565b82525050565b60006020820190506114396000830184611415565b92915050565b600080fd5b600080fd5b600080fd5b60008083601f8401126114645761146361143f565b5b8235905067ffffffffffffffff81111561148157611480611444565b5b60208301915083602082028301111561149d5761149c611449565b5b9250929050565b6000806000604084860312156114bd576114bc611195565b5b60006114cb868287016111e8565b935050602084013567ffffffffffffffff8111156114ec576114eb61119a565b5b6114f88682870161144e565b92509250509250925092565b60006020828403121561151a57611519611195565b5b600061152884828501611226565b91505092915050565b60008151905061154081611245565b92915050565b60006020828403121561155c5761155b611195565b5b600061156a84828501611531565b91505092915050565b600060608201905061158860008301866113eb565b6115956020830185611415565b6115a26040830184611415565b949350505050565b60006060820190506115bf60008301866113eb565b6115cc60208301856113eb565b6115d96040830184611415565b949350505050565b600082825260208201905092915050565b7f6665655261746520697320626967676572207468616e2064656e6f6d696e617460008201527f6f72000000000000000000000000000000000000000000000000000000000000602082015250565b600061164e6022836115e1565b9150611659826115f2565b604082019050919050565b6000602082019050818103600083015261167d81611641565b9050919050565b6000815190506116938161120f565b92915050565b6000602082840312156116af576116ae611195565b5b60006116bd84828501611684565b91505092915050565b7f65726332302067617465776179206e6f7420666f756e64000000000000000000600082015250565b60006116fc6017836115e1565b9150611707826116c6565b602082019050919050565b6000602082019050818103600083015261172b816116ef565b9050919050565b600060808201905061174760008301876113eb565b61175460208301866113eb565b6117616040830185611415565b61176e6060830184611415565b95945050505050565b600060808201905061178c60008301876113eb565b61179960208301866113eb565b6117a660408301856113eb565b6117b36060830184611415565b95945050505050565b7f4e487b7100000000000000000000000000000000000000000000000000000000600052603260045260246000fd5b7f4e487b7100000000000000000000000000000000000000000000000000000000600052601160045260246000fd5b60006118258261123b565b91507fffffffffffffffffffffffffffffffffffffffffffffffffffffffffffffffff8203611857576118566117eb565b5b600182019050919050565b600061186d8261123b565b91506118788361123b565b92508282026118868161123b565b9150828204841483151761189d5761189c6117eb565b5b5092915050565b7f4e487b7100000000000000000000000000000000000000000000000000000000600052601260045260246000fd5b60006118de8261123b565b91506118e98361123b565b9250826118f9576118f86118a4565b5b828204905092915050565b7f6f776e65722077617320616c726561647920696e697469616c697a6564000000600082015250565b600061193a601d836115e1565b915061194582611904565b602082019050919050565b600060208201905081810360008301526119698161192d565b9050919050565b600081905092915050565b50565b600061198b600083611970565b91506119968261197b565b600082019050919050565b60006119ac8261197e565b9150819050919050565b60006040820190506119cb60008301856113eb565b6119d86020830184611415565b9392505050565b60008115159050919050565b6119f4816119df565b81146119ff57600080fd5b50565b600081519050611a11816119eb565b92915050565b600060208284031215611a2d57611a2c611195565b5b6000611a3b84828501611a02565b91505092915050565b6000819050919050565b6000819050919050565b6000611a73611a6e611a6984611a44565b611a4e565b61123b565b9050919050565b611a8381611a58565b82525050565b6000604082019050611a9e60008301856113eb565b611aab6020830184611a7a565b9392505050565b600081519050919050565b60005b83811015611adb578082015181840152602081019050611ac0565b60008484015250505050565b6000611af282611ab2565b611afc8185611970565b9350611b0c818560208601611abd565b80840191505092915050565b6000611b248284611ae7565b91508190509291505056fea2646970667358221220536142d213bc7a6170973eae5bef333a9274c6c2d35c936c8be12b2222afcd5c64736f6c63430008140033",
	"linkReferences": {},
	"deployedLinkReferences": {}
}