{
	"_format": "hh-sol-artifact-1",
	"contractName": "L2ScanEthereumBridgeV2",
	"sourceName": "contracts/L2ScanEthereumBridgeV2.sol",
	"abi": [
		{
			"anonymous": false,
			"inputs": [
				{
					"indexed": false,
					"internalType": "uint8",
					"name": "version",
					"type": "uint8"
				}
			],
			"name": "Initialized",
			"type": "event"
		},
		{
			"anonymous": false,
			"inputs": [
				{
					"indexed": true,
					"internalType": "address",
					"name": "previousOwner",
					"type": "address"
				},
				{
					"indexed": true,
					"internalType": "address",
					"name": "newOwner",
					"type": "address"
				}
			],
			"name": "OwnershipTransferred",
			"type": "event"
		},
		{
			"anonymous": false,
			"inputs": [
				{
					"indexed": false,
					"internalType": "address",
					"name": "account",
					"type": "address"
				}
			],
			"name": "Paused",
			"type": "event"
		},
		{
			"anonymous": false,
			"inputs": [
				{
					"indexed": false,
					"internalType": "address",
					"name": "from",
					"type": "address"
				},
				{
					"indexed": false,
					"internalType": "address",
					"name": "to",
					"type": "address"
				},
				{
					"indexed": false,
					"internalType": "address",
					"name": "token",
					"type": "address"
				},
				{
					"indexed": false,
					"internalType": "uint256",
					"name": "amount",
					"type": "uint256"
				}
			],
			"name": "ScrollDepositERC20Event",
			"type": "event"
		},
		{
			"anonymous": false,
			"inputs": [
				{
					"indexed": false,
					"internalType": "address",
					"name": "from",
					"type": "address"
				},
				{
					"indexed": false,
					"internalType": "address",
					"name": "to",
					"type": "address"
				},
				{
					"indexed": false,
					"internalType": "uint256",
					"name": "amount",
					"type": "uint256"
				}
			],
			"name": "ScrollDepositETHEvent",
			"type": "event"
		},
		{
			"anonymous": false,
			"inputs": [
				{
					"indexed": false,
					"internalType": "address",
					"name": "account",
					"type": "address"
				}
			],
			"name": "Unpaused",
			"type": "event"
		},
		{
			"anonymous": false,
			"inputs": [
				{
					"indexed": false,
					"internalType": "uint256",
					"name": "feeRate",
					"type": "uint256"
				}
			],
			"name": "UpdateFeeRate",
			"type": "event"
		},
		{
			"anonymous": false,
			"inputs": [
				{
					"indexed": false,
					"internalType": "address",
					"name": "from",
					"type": "address"
				},
				{
					"indexed": false,
					"internalType": "address",
					"name": "to",
					"type": "address"
				},
				{
					"indexed": false,
					"internalType": "address",
					"name": "token",
					"type": "address"
				},
				{
					"indexed": false,
					"internalType": "uint256",
					"name": "amount",
					"type": "uint256"
				}
			],
			"name": "ZkSyncEraDepositERC20Event",
			"type": "event"
		},
		{
			"anonymous": false,
			"inputs": [
				{
					"indexed": false,
					"internalType": "address",
					"name": "from",
					"type": "address"
				},
				{
					"indexed": false,
					"internalType": "address",
					"name": "to",
					"type": "address"
				},
				{
					"indexed": false,
					"internalType": "uint256",
					"name": "amount",
					"type": "uint256"
				}
			],
			"name": "ZkSyncEraDepositETHEvent",
			"type": "event"
		},
		{
			"inputs": [
				{
					"internalType": "uint256",
					"name": "amount",
					"type": "uint256"
				}
			],
			"name": "amountAfterFee",
			"outputs": [
				{
					"internalType": "uint256",
					"name": "",
					"type": "uint256"
				}
			],
			"stateMutability": "view",
			"type": "function"
		},
		{
			"inputs": [
				{
					"internalType": "address",
					"name": "_token",
					"type": "address"
				},
				{
					"internalType": "address",
					"name": "_to",
					"type": "address"
				},
				{
					"internalType": "uint256",
					"name": "_amount",
					"type": "uint256"
				},
				{
					"internalType": "uint256",
					"name": "_gasLimit",
					"type": "uint256"
				}
			],
			"name": "depositERC20ToScroll",
			"outputs": [],
			"stateMutability": "payable",
			"type": "function"
		},
		{
			"inputs": [
				{
					"internalType": "address",
					"name": "_l2Receiver",
					"type": "address"
				},
				{
					"internalType": "address",
					"name": "_l1Token",
					"type": "address"
				},
				{
					"internalType": "uint256",
					"name": "_amount",
					"type": "uint256"
				},
				{
					"internalType": "uint256",
					"name": "_l2TxGasLimit",
					"type": "uint256"
				},
				{
					"internalType": "uint256",
					"name": "_l2TxGasPerPubdataByte",
					"type": "uint256"
				},
				{
					"internalType": "address",
					"name": "_refundRecipient",
					"type": "address"
				}
			],
			"name": "depositERC20ToZkSyncEra",
			"outputs": [
				{
					"internalType": "bytes32",
					"name": "l2TxHash",
					"type": "bytes32"
				}
			],
			"stateMutability": "payable",
			"type": "function"
		},
		{
			"inputs": [
				{
					"internalType": "address",
					"name": "to",
					"type": "address"
				},
				{
					"internalType": "uint256",
					"name": "_amount",
					"type": "uint256"
				},
				{
					"internalType": "uint256",
					"name": "_gasLimit",
					"type": "uint256"
				}
			],
			"name": "depositETHToScroll",
			"outputs": [],
			"stateMutability": "payable",
			"type": "function"
		},
		{
			"inputs": [
				{
					"internalType": "address",
					"name": "_contractL2",
					"type": "address"
				},
				{
					"internalType": "uint256",
					"name": "_l2Value",
					"type": "uint256"
				},
				{
					"internalType": "bytes",
					"name": "_calldata",
					"type": "bytes"
				},
				{
					"internalType": "uint256",
					"name": "_l2GasLimit",
					"type": "uint256"
				},
				{
					"internalType": "uint256",
					"name": "_l2GasPerPubdataByteLimit",
					"type": "uint256"
				},
				{
					"internalType": "bytes[]",
					"name": "_factoryDeps",
					"type": "bytes[]"
				},
				{
					"internalType": "address",
					"name": "_refundRecipient",
					"type": "address"
				}
			],
			"name": "depositETHToZkSyncEra",
			"outputs": [
				{
					"internalType": "bytes32",
					"name": "canonicalTxHash",
					"type": "bytes32"
				}
			],
			"stateMutability": "payable",
			"type": "function"
		},
		{
			"inputs": [],
			"name": "feeRate",
			"outputs": [
				{
					"internalType": "uint256",
					"name": "",
					"type": "uint256"
				}
			],
			"stateMutability": "view",
			"type": "function"
		},
		{
			"inputs": [],
			"name": "getVer",
			"outputs": [
				{
					"internalType": "uint256",
					"name": "",
					"type": "uint256"
				}
			],
			"stateMutability": "pure",
			"type": "function"
		},
		{
			"inputs": [
				{
					"internalType": "address",
					"name": "initialOwner",
					"type": "address"
				},
				{
					"internalType": "uint256",
					"name": "_feeRate",
					"type": "uint256"
				}
			],
			"name": "initializeFeeCollector",
			"outputs": [],
			"stateMutability": "nonpayable",
			"type": "function"
		},
		{
			"inputs": [],
			"name": "owner",
			"outputs": [
				{
					"internalType": "address",
					"name": "",
					"type": "address"
				}
			],
			"stateMutability": "view",
			"type": "function"
		},
		{
			"inputs": [],
			"name": "pause",
			"outputs": [],
			"stateMutability": "nonpayable",
			"type": "function"
		},
		{
			"inputs": [],
			"name": "paused",
			"outputs": [
				{
					"internalType": "bool",
					"name": "",
					"type": "bool"
				}
			],
			"stateMutability": "view",
			"type": "function"
		},
		{
			"inputs": [],
			"name": "renounceOwnership",
			"outputs": [],
			"stateMutability": "nonpayable",
			"type": "function"
		},
		{
			"inputs": [
				{
					"internalType": "uint256",
					"name": "_feeRate",
					"type": "uint256"
				}
			],
			"name": "setFeeRate",
			"outputs": [],
			"stateMutability": "nonpayable",
			"type": "function"
		},
		{
			"inputs": [
				{
					"internalType": "address",
					"name": "newOwner",
					"type": "address"
				}
			],
			"name": "transferOwnership",
			"outputs": [],
			"stateMutability": "nonpayable",
			"type": "function"
		},
		{
			"inputs": [],
			"name": "unpause",
			"outputs": [],
			"stateMutability": "nonpayable",
			"type": "function"
		},
		{
			"inputs": [
				{
					"internalType": "address payable",
					"name": "recipient",
					"type": "address"
				},
				{
					"internalType": "address",
					"name": "asset",
					"type": "address"
				},
				{
					"internalType": "uint256",
					"name": "amount",
					"type": "uint256"
				}
			],
			"name": "withdrawFee",
			"outputs": [],
			"stateMutability": "nonpayable",
			"type": "function"
		},
		{
			"inputs": [
				{
					"internalType": "address payable",
					"name": "recipient",
					"type": "address"
				},
				{
					"internalType": "address[]",
					"name": "assets",
					"type": "address[]"
				}
			],
			"name": "withdrawFees",
			"outputs": [],
			"stateMutability": "nonpayable",
			"type": "function"
		}
	],
	"bytecode": "0x608060405234801561001057600080fd5b50612cd4806100206000396000f3fe6080604052600436106100fe5760003560e01c8063715018a611610095578063978bbdb911610064578063978bbdb9146102c05780639b04ce29146102eb578063aa6cd24b14610314578063ad54cde614610351578063f2fde38b1461036d576100fe565b8063715018a61461023c5780638456cb59146102535780638793ad551461026a5780638da5cb5b14610295576100fe565b806345596e2e116100d157806345596e2e1461019c578063537fb27e146101c55780635c975abb146101e157806369f6ab3c1461020c576100fe565b80631095b6d714610103578063246433801461012c5780633f4ba83a146101555780634280930b1461016c575b600080fd5b34801561010f57600080fd5b5061012a600480360381019061012591906118f1565b610396565b005b34801561013857600080fd5b50610153600480360381019061014e9190611944565b6104c2565b005b34801561016157600080fd5b5061016a6106fa565b005b61018660048036038101906101819190611a3f565b61070c565b6040516101939190611b3a565b60405180910390f35b3480156101a857600080fd5b506101c360048036038101906101be9190611b55565b6108c0565b005b6101df60048036038101906101da9190611b82565b61094e565b005b3480156101ed57600080fd5b506101f6610a52565b6040516102039190611c04565b60405180910390f35b61022660048036038101906102219190611c1f565b610a69565b6040516102339190611b3a565b60405180910390f35b34801561024857600080fd5b50610251610bc9565b005b34801561025f57600080fd5b50610268610bdd565b005b34801561027657600080fd5b5061027f610bef565b60405161028c9190611cbb565b60405180910390f35b3480156102a157600080fd5b506102aa610bf9565b6040516102b79190611ce5565b60405180910390f35b3480156102cc57600080fd5b506102d5610c23565b6040516102e29190611cbb565b60405180910390f35b3480156102f757600080fd5b50610312600480360381019061030d9190611d56565b610c29565b005b34801561032057600080fd5b5061033b60048036038101906103369190611b55565b610c83565b6040516103489190611cbb565b60405180910390f35b61036b60048036038101906103669190611db6565b610ca7565b005b34801561037957600080fd5b50610394600480360381019061038f9190611e09565b610df3565b005b61039e610e76565b600073ffffffffffffffffffffffffffffffffffffffff168273ffffffffffffffffffffffffffffffffffffffff160361040c57600081036103de574790505b610407818473ffffffffffffffffffffffffffffffffffffffff16610ef490919063ffffffff16565b6104bd565b60008103610491578173ffffffffffffffffffffffffffffffffffffffff166370a08231306040518263ffffffff1660e01b815260040161044d9190611ce5565b602060405180830381865afa15801561046a573d6000803e3d6000fd5b505050506040513d601f19601f8201168201806040525081019061048e9190611e4b565b90505b6104bc83828473ffffffffffffffffffffffffffffffffffffffff16610fe89092919063ffffffff16565b5b505050565b60008060019054906101000a900460ff161590508080156104f35750600160008054906101000a900460ff1660ff16105b8061052057506105023061106e565b15801561051f5750600160008054906101000a900460ff1660ff16145b5b61055f576040517f08c379a000000000000000000000000000000000000000000000000000000000815260040161055690611efb565b60405180910390fd5b60016000806101000a81548160ff021916908360ff160217905550801561059c576001600060016101000a81548160ff0219169083151502179055505b600073ffffffffffffffffffffffffffffffffffffffff166105bc610bf9565b73ffffffffffffffffffffffffffffffffffffffff160361065057600073ffffffffffffffffffffffffffffffffffffffff168373ffffffffffffffffffffffffffffffffffffffff1603610646576040517f08c379a000000000000000000000000000000000000000000000000000000000815260040161063d90611f8d565b60405180910390fd5b61064f83611091565b5b612710821115610695576040517f08c379a000000000000000000000000000000000000000000000000000000000815260040161068c9061201f565b60405180910390fd5b8160978190555080156106f55760008060016101000a81548160ff0219169083151502179055507f7f26b83ff96e1f2b6a682f133852f6798a09c465da95921460cefb384740249860016040516106ec9190612091565b60405180910390a15b505050565b610702610e76565b61070a611157565b565b60006107166111ba565b60006107218a610c83565b905060008a823461073291906120db565b61073c919061210f565b90508a341015801561074e5750803410155b61078d576040517f08c379a00000000000000000000000000000000000000000000000000000000081526004016107849061218f565b60405180910390fd5b600073ffffffffffffffffffffffffffffffffffffffff168473ffffffffffffffffffffffffffffffffffffffff16036107cc576107c9611204565b93505b7f4b0060115e50fde0f9ce4f4544d2db632e3da35db168ff0a2ea7d30dee6721346107f5611204565b8d8d604051610806939291906121af565b60405180910390a1739a6de0f62aa270a8bcb1e2610078650d539b1ef973ffffffffffffffffffffffffffffffffffffffff1663eb672419828e858e8e8e8e8e8e8e6040518b63ffffffff1660e01b815260040161086c999897969594939291906123a8565b60206040518083038185885af115801561088a573d6000803e3d6000fd5b50505050506040513d601f19601f820116820180604052508101906108af9190612455565b925050509998505050505050505050565b6108c8610e76565b61271081111561090d576040517f08c379a00000000000000000000000000000000000000000000000000000000081526004016109049061201f565b60405180910390fd5b806097819055507f52b2ee810c3333817a10bb0ea59d08592795f3b8d8a0903baab7c55c363a7737816040516109439190611cbb565b60405180910390a150565b6109566111ba565b600061097f8386610965611204565b7313fbe0d0e5552b8c9c4ae9e2435f38f37355998a61120c565b90507313fbe0d0e5552b8c9c4ae9e2435f38f37355998a73ffffffffffffffffffffffffffffffffffffffff1663f219fa6634878785876040518663ffffffff1660e01b81526004016109d59493929190612482565b6000604051808303818588803b1580156109ee57600080fd5b505af1158015610a02573d6000803e3d6000fd5b50505050507f10b38d92e4d03db10f47203bde62c9a44ca818a0492c09abc85838592a5d69e7610a30611204565b858786604051610a4394939291906124c7565b60405180910390a15050505050565b6000606560009054906101000a900460ff16905090565b6000610a736111ba565b600073ffffffffffffffffffffffffffffffffffffffff168273ffffffffffffffffffffffffffffffffffffffff1603610ab257610aaf611204565b91505b6000610adb8688610ac1611204565b732ae09702f77a4940621572fbcdae2382d44a2cba61120c565b90507f58d69c24382570996b6c246ce8f34aef8faf30ef55f7efaaf3f3bae047f4d0a7610b06611204565b898989604051610b1994939291906124c7565b60405180910390a1732ae09702f77a4940621572fbcdae2382d44a2cba73ffffffffffffffffffffffffffffffffffffffff1663e8b99b1b348a8a858a8a8a6040518863ffffffff1660e01b8152600401610b799695949392919061250c565b60206040518083038185885af1158015610b97573d6000803e3d6000fd5b50505050506040513d601f19601f82011682018060405250810190610bbc9190612455565b9150509695505050505050565b610bd1610e76565b610bdb6000611091565b565b610be5610e76565b610bed611279565b565b60006107d0905090565b6000603360009054906101000a900473ffffffffffffffffffffffffffffffffffffffff16905090565b60975481565b60005b82829050811015610c7d57610c6a84848484818110610c4e57610c4d61256d565b5b9050602002016020810190610c639190611e09565b6000610396565b8080610c759061259c565b915050610c2c565b50505050565b600061271060975483610c9691906125e4565b610ca09190612655565b9050919050565b610caf6111ba565b6000610cba83610c83565b90506000838234610ccb91906120db565b610cd5919061210f565b9050833410158015610ce75750803410155b610d26576040517f08c379a0000000000000000000000000000000000000000000000000000000008152600401610d1d9061218f565b60405180910390fd5b7313fbe0d0e5552b8c9c4ae9e2435f38f37355998a73ffffffffffffffffffffffffffffffffffffffff1663ce0b63ce828785876040518563ffffffff1660e01b8152600401610d7893929190612686565b6000604051808303818588803b158015610d9157600080fd5b505af1158015610da5573d6000803e3d6000fd5b50505050507fa5144c708730bdf1c511a799569036285761611328f3c28654a693a42db862b4610dd3611204565b8686604051610de4939291906121af565b60405180910390a15050505050565b610dfb610e76565b600073ffffffffffffffffffffffffffffffffffffffff168173ffffffffffffffffffffffffffffffffffffffff1603610e6a576040517f08c379a0000000000000000000000000000000000000000000000000000000008152600401610e6190611f8d565b60405180910390fd5b610e7381611091565b50565b610e7e611204565b73ffffffffffffffffffffffffffffffffffffffff16610e9c610bf9565b73ffffffffffffffffffffffffffffffffffffffff1614610ef2576040517f08c379a0000000000000000000000000000000000000000000000000000000008152600401610ee990612709565b60405180910390fd5b565b80471015610f37576040517f08c379a0000000000000000000000000000000000000000000000000000000008152600401610f2e90612775565b60405180910390fd5b60008273ffffffffffffffffffffffffffffffffffffffff1682604051610f5d906127c6565b60006040518083038185875af1925050503d8060008114610f9a576040519150601f19603f3d011682016040523d82523d6000602084013e610f9f565b606091505b5050905080610fe3576040517f08c379a0000000000000000000000000000000000000000000000000000000008152600401610fda9061284d565b60405180910390fd5b505050565b6110698363a9059cbb60e01b848460405160240161100792919061286d565b604051602081830303815290604052907bffffffffffffffffffffffffffffffffffffffffffffffffffffffff19166020820180517bffffffffffffffffffffffffffffffffffffffffffffffffffffffff83818316178352505050506112dc565b505050565b6000808273ffffffffffffffffffffffffffffffffffffffff163b119050919050565b6000603360009054906101000a900473ffffffffffffffffffffffffffffffffffffffff16905081603360006101000a81548173ffffffffffffffffffffffffffffffffffffffff021916908373ffffffffffffffffffffffffffffffffffffffff1602179055508173ffffffffffffffffffffffffffffffffffffffff168173ffffffffffffffffffffffffffffffffffffffff167f8be0079c531659141344cd1fd0a4f28419497f9722a3daafe3b4186f6b6457e060405160405180910390a35050565b61115f6113a4565b6000606560006101000a81548160ff0219169083151502179055507f5db9ee0a495bf2e6ff9c91a7834c1ba4fdd244a5e8aa4e537bd38aeae4b073aa6111a3611204565b6040516111b09190611ce5565b60405180910390a1565b6111c2610a52565b15611202576040517f08c379a00000000000000000000000000000000000000000000000000000000081526004016111f9906128e2565b60405180910390fd5b565b600033905090565b600061123b8330878773ffffffffffffffffffffffffffffffffffffffff166113ed909392919063ffffffff16565b61124485610c83565b905061127182828673ffffffffffffffffffffffffffffffffffffffff166114769092919063ffffffff16565b949350505050565b6112816111ba565b6001606560006101000a81548160ff0219169083151502179055507f62e78cea01bee320cd4e420270b5ea74000d11b0c9f74754ebdbfc544b05a2586112c5611204565b6040516112d29190611ce5565b60405180910390a1565b600061133e826040518060400160405280602081526020017f5361666545524332303a206c6f772d6c6576656c2063616c6c206661696c65648152508573ffffffffffffffffffffffffffffffffffffffff166115939092919063ffffffff16565b905060008151148061136057508080602001905181019061135f919061292e565b5b61139f576040517f08c379a0000000000000000000000000000000000000000000000000000000008152600401611396906129cd565b60405180910390fd5b505050565b6113ac610a52565b6113eb576040517f08c379a00000000000000000000000000000000000000000000000000000000081526004016113e290612a39565b60405180910390fd5b565b611470846323b872dd60e01b85858560405160240161140e939291906121af565b604051602081830303815290604052907bffffffffffffffffffffffffffffffffffffffffffffffffffffffff19166020820180517bffffffffffffffffffffffffffffffffffffffffffffffffffffffff83818316178352505050506112dc565b50505050565b600063095ea7b360e01b838360405160240161149392919061286d565b604051602081830303815290604052907bffffffffffffffffffffffffffffffffffffffffffffffffffffffff19166020820180517bffffffffffffffffffffffffffffffffffffffffffffffffffffffff838183161783525050505090506114fc84826115ab565b61158d576115828463095ea7b360e01b856000604051602401611520929190612a94565b604051602081830303815290604052907bffffffffffffffffffffffffffffffffffffffffffffffffffffffff19166020820180517bffffffffffffffffffffffffffffffffffffffffffffffffffffffff83818316178352505050506112dc565b61158c84826112dc565b5b50505050565b60606115a28484600085611660565b90509392505050565b60008060008473ffffffffffffffffffffffffffffffffffffffff16846040516115d59190612b23565b6000604051808303816000865af19150503d8060008114611612576040519150601f19603f3d011682016040523d82523d6000602084013e611617565b606091505b50915091508180156116455750600081511480611644575080806020019051810190611643919061292e565b5b5b801561165657506116558561172d565b5b9250505092915050565b6060824710156116a5576040517f08c379a000000000000000000000000000000000000000000000000000000000815260040161169c90612bac565b60405180910390fd5b6000808673ffffffffffffffffffffffffffffffffffffffff1685876040516116ce9190612b23565b60006040518083038185875af1925050503d806000811461170b576040519150601f19603f3d011682016040523d82523d6000602084013e611710565b606091505b509150915061172187838387611750565b92505050949350505050565b6000808273ffffffffffffffffffffffffffffffffffffffff163b119050919050565b606083156117b25760008351036117aa5761176a8561172d565b6117a9576040517f08c379a00000000000000000000000000000000000000000000000000000000081526004016117a090612c18565b60405180910390fd5b5b8290506117bd565b6117bc83836117c5565b5b949350505050565b6000825111156117d85781518083602001fd5b806040517f08c379a000000000000000000000000000000000000000000000000000000000815260040161180c9190612c7c565b60405180910390fd5b600080fd5b600080fd5b600073ffffffffffffffffffffffffffffffffffffffff82169050919050565b600061184a8261181f565b9050919050565b61185a8161183f565b811461186557600080fd5b50565b60008135905061187781611851565b92915050565b60006118888261181f565b9050919050565b6118988161187d565b81146118a357600080fd5b50565b6000813590506118b58161188f565b92915050565b6000819050919050565b6118ce816118bb565b81146118d957600080fd5b50565b6000813590506118eb816118c5565b92915050565b60008060006060848603121561190a57611909611815565b5b600061191886828701611868565b9350506020611929868287016118a6565b925050604061193a868287016118dc565b9150509250925092565b6000806040838503121561195b5761195a611815565b5b6000611969858286016118a6565b925050602061197a858286016118dc565b9150509250929050565b600080fd5b600080fd5b600080fd5b60008083601f8401126119a9576119a8611984565b5b8235905067ffffffffffffffff8111156119c6576119c5611989565b5b6020830191508360018202830111156119e2576119e161198e565b5b9250929050565b60008083601f8401126119ff576119fe611984565b5b8235905067ffffffffffffffff811115611a1c57611a1b611989565b5b602083019150836020820283011115611a3857611a3761198e565b5b9250929050565b600080600080600080600080600060e08a8c031215611a6157611a60611815565b5b6000611a6f8c828d016118a6565b9950506020611a808c828d016118dc565b98505060408a013567ffffffffffffffff811115611aa157611aa061181a565b5b611aad8c828d01611993565b97509750506060611ac08c828d016118dc565b9550506080611ad18c828d016118dc565b94505060a08a013567ffffffffffffffff811115611af257611af161181a565b5b611afe8c828d016119e9565b935093505060c0611b118c828d016118a6565b9150509295985092959850929598565b6000819050919050565b611b3481611b21565b82525050565b6000602082019050611b4f6000830184611b2b565b92915050565b600060208284031215611b6b57611b6a611815565b5b6000611b79848285016118dc565b91505092915050565b60008060008060808587031215611b9c57611b9b611815565b5b6000611baa878288016118a6565b9450506020611bbb878288016118a6565b9350506040611bcc878288016118dc565b9250506060611bdd878288016118dc565b91505092959194509250565b60008115159050919050565b611bfe81611be9565b82525050565b6000602082019050611c196000830184611bf5565b92915050565b60008060008060008060c08789031215611c3c57611c3b611815565b5b6000611c4a89828a016118a6565b9650506020611c5b89828a016118a6565b9550506040611c6c89828a016118dc565b9450506060611c7d89828a016118dc565b9350506080611c8e89828a016118dc565b92505060a0611c9f89828a016118a6565b9150509295509295509295565b611cb5816118bb565b82525050565b6000602082019050611cd06000830184611cac565b92915050565b611cdf8161187d565b82525050565b6000602082019050611cfa6000830184611cd6565b92915050565b60008083601f840112611d1657611d15611984565b5b8235905067ffffffffffffffff811115611d3357611d32611989565b5b602083019150836020820283011115611d4f57611d4e61198e565b5b9250929050565b600080600060408486031215611d6f57611d6e611815565b5b6000611d7d86828701611868565b935050602084013567ffffffffffffffff811115611d9e57611d9d61181a565b5b611daa86828701611d00565b92509250509250925092565b600080600060608486031215611dcf57611dce611815565b5b6000611ddd868287016118a6565b9350506020611dee868287016118dc565b9250506040611dff868287016118dc565b9150509250925092565b600060208284031215611e1f57611e1e611815565b5b6000611e2d848285016118a6565b91505092915050565b600081519050611e45816118c5565b92915050565b600060208284031215611e6157611e60611815565b5b6000611e6f84828501611e36565b91505092915050565b600082825260208201905092915050565b7f496e697469616c697a61626c653a20636f6e747261637420697320616c72656160008201527f647920696e697469616c697a6564000000000000000000000000000000000000602082015250565b6000611ee5602e83611e78565b9150611ef082611e89565b604082019050919050565b60006020820190508181036000830152611f1481611ed8565b9050919050565b7f4f776e61626c653a206e6577206f776e657220697320746865207a65726f206160008201527f6464726573730000000000000000000000000000000000000000000000000000602082015250565b6000611f77602683611e78565b9150611f8282611f1b565b604082019050919050565b60006020820190508181036000830152611fa681611f6a565b9050919050565b7f6665655261746520697320626967676572207468616e2064656e6f6d696e617460008201527f6f72000000000000000000000000000000000000000000000000000000000000602082015250565b6000612009602283611e78565b915061201482611fad565b604082019050919050565b6000602082019050818103600083015261203881611ffc565b9050919050565b6000819050919050565b600060ff82169050919050565b6000819050919050565b600061207b6120766120718461203f565b612056565b612049565b9050919050565b61208b81612060565b82525050565b60006020820190506120a66000830184612082565b92915050565b7f4e487b7100000000000000000000000000000000000000000000000000000000600052601160045260246000fd5b60006120e6826118bb565b91506120f1836118bb565b9250828201905080821115612109576121086120ac565b5b92915050565b600061211a826118bb565b9150612125836118bb565b925082820390508181111561213d5761213c6120ac565b5b92915050565b7f6e65676174697665206665650000000000000000000000000000000000000000600082015250565b6000612179600c83611e78565b915061218482612143565b602082019050919050565b600060208201905081810360008301526121a88161216c565b9050919050565b60006060820190506121c46000830186611cd6565b6121d16020830185611cd6565b6121de6040830184611cac565b949350505050565b600082825260208201905092915050565b82818337600083830152505050565b6000601f19601f8301169050919050565b600061222383856121e6565b93506122308385846121f7565b61223983612206565b840190509392505050565b600082825260208201905092915050565b6000819050919050565b600082825260208201905092915050565b600061227c838561225f565b93506122898385846121f7565b61229283612206565b840190509392505050565b60006122aa848484612270565b90509392505050565b600080fd5b600080fd5b600080fd5b600080833560016020038436030381126122df576122de6122bd565b5b83810192508235915060208301925067ffffffffffffffff821115612307576123066122b3565b5b60018202360383131561231d5761231c6122b8565b5b509250929050565b6000602082019050919050565b600061233e8385612244565b93508360208402850161235084612255565b8060005b8781101561239657848403895261236b82846122c2565b61237686828461229d565b955061238184612325565b935060208b019a505050600181019050612354565b50829750879450505050509392505050565b600060e0820190506123bd600083018c611cd6565b6123ca602083018b611cac565b81810360408301526123dd81898b612217565b90506123ec6060830188611cac565b6123f96080830187611cac565b81810360a083015261240c818587612332565b905061241b60c0830184611cd6565b9a9950505050505050505050565b61243281611b21565b811461243d57600080fd5b50565b60008151905061244f81612429565b92915050565b60006020828403121561246b5761246a611815565b5b600061247984828501612440565b91505092915050565b60006080820190506124976000830187611cd6565b6124a46020830186611cd6565b6124b16040830185611cac565b6124be6060830184611cac565b95945050505050565b60006080820190506124dc6000830187611cd6565b6124e96020830186611cd6565b6124f66040830185611cd6565b6125036060830184611cac565b95945050505050565b600060c0820190506125216000830189611cd6565b61252e6020830188611cd6565b61253b6040830187611cac565b6125486060830186611cac565b6125556080830185611cac565b61256260a0830184611cd6565b979650505050505050565b7f4e487b7100000000000000000000000000000000000000000000000000000000600052603260045260246000fd5b60006125a7826118bb565b91507fffffffffffffffffffffffffffffffffffffffffffffffffffffffffffffffff82036125d9576125d86120ac565b5b600182019050919050565b60006125ef826118bb565b91506125fa836118bb565b9250828202612608816118bb565b9150828204841483151761261f5761261e6120ac565b5b5092915050565b7f4e487b7100000000000000000000000000000000000000000000000000000000600052601260045260246000fd5b6000612660826118bb565b915061266b836118bb565b92508261267b5761267a612626565b5b828204905092915050565b600060608201905061269b6000830186611cd6565b6126a86020830185611cac565b6126b56040830184611cac565b949350505050565b7f4f776e61626c653a2063616c6c6572206973206e6f7420746865206f776e6572600082015250565b60006126f3602083611e78565b91506126fe826126bd565b602082019050919050565b60006020820190508181036000830152612722816126e6565b9050919050565b7f416464726573733a20696e73756666696369656e742062616c616e6365000000600082015250565b600061275f601d83611e78565b915061276a82612729565b602082019050919050565b6000602082019050818103600083015261278e81612752565b9050919050565b600081905092915050565b50565b60006127b0600083612795565b91506127bb826127a0565b600082019050919050565b60006127d1826127a3565b9150819050919050565b7f416464726573733a20756e61626c6520746f2073656e642076616c75652c207260008201527f6563697069656e74206d61792068617665207265766572746564000000000000602082015250565b6000612837603a83611e78565b9150612842826127db565b604082019050919050565b600060208201905081810360008301526128668161282a565b9050919050565b60006040820190506128826000830185611cd6565b61288f6020830184611cac565b9392505050565b7f5061757361626c653a2070617573656400000000000000000000000000000000600082015250565b60006128cc601083611e78565b91506128d782612896565b602082019050919050565b600060208201905081810360008301526128fb816128bf565b9050919050565b61290b81611be9565b811461291657600080fd5b50565b60008151905061292881612902565b92915050565b60006020828403121561294457612943611815565b5b600061295284828501612919565b91505092915050565b7f5361666545524332303a204552433230206f7065726174696f6e20646964206e60008201527f6f74207375636365656400000000000000000000000000000000000000000000602082015250565b60006129b7602a83611e78565b91506129c28261295b565b604082019050919050565b600060208201905081810360008301526129e6816129aa565b9050919050565b7f5061757361626c653a206e6f7420706175736564000000000000000000000000600082015250565b6000612a23601483611e78565b9150612a2e826129ed565b602082019050919050565b60006020820190508181036000830152612a5281612a16565b9050919050565b6000819050919050565b6000612a7e612a79612a7484612a59565b612056565b612049565b9050919050565b612a8e81612a63565b82525050565b6000604082019050612aa96000830185611cd6565b612ab66020830184612a85565b9392505050565b600081519050919050565b60005b83811015612ae6578082015181840152602081019050612acb565b60008484015250505050565b6000612afd82612abd565b612b078185612795565b9350612b17818560208601612ac8565b80840191505092915050565b6000612b2f8284612af2565b915081905092915050565b7f416464726573733a20696e73756666696369656e742062616c616e636520666f60008201527f722063616c6c0000000000000000000000000000000000000000000000000000602082015250565b6000612b96602683611e78565b9150612ba182612b3a565b604082019050919050565b60006020820190508181036000830152612bc581612b89565b9050919050565b7f416464726573733a2063616c6c20746f206e6f6e2d636f6e7472616374000000600082015250565b6000612c02601d83611e78565b9150612c0d82612bcc565b602082019050919050565b60006020820190508181036000830152612c3181612bf5565b9050919050565b600081519050919050565b6000612c4e82612c38565b612c588185611e78565b9350612c68818560208601612ac8565b612c7181612206565b840191505092915050565b60006020820190508181036000830152612c968184612c43565b90509291505056fea2646970667358221220899c8e5da70c834f7928b34859e72e4199ac74d954d766d9ee00d70d6376883c64736f6c63430008140033",
	"linkReferences": {},
	"deployedLinkReferences": {}
}